:020000040800F2
:1000000000C00020150D0008B50C0008B70C000852
:10001000B90C0008BB0C0008BD0C00080000000073
:10002000000000000000000000000000BF0C0008FD
:10003000C10C000800000000C30C0008C50C00083B
:100040005D0D00085D0D00085D0D00085D0D0008E8
:100050005D0D00085D0D00085D0D00085D0D0008D8
:100060005D0D00085D0D00085D0D00085D0D0008C8
:100070005D0D00085D0D00085D0D00085D0D0008B8
:100080005D0D00085D0D00085D0D00085D0D0008A8
:100090005D0D00085D0D00085D0D00085D0D000898
:1000A0005D0D00085D0D00085D0D00085D0D000888
:1000B0005D0D00085D0D00085D0D00085D0D000878
:1000C0005D0D00085D0D00085D0D00085D0D000868
:1000D0005D0D00085D0D00085D0D00085D0D000858
:1000E0005D0D00085D0D00085D0D00085D0D000848
:1000F0005D0D00085D0D00085D0D00085D0D000838
:100100005D0D00085D0D00085D0D00085D0D000827
:100110005D0D00085D0D00085D0D00085D0D000817
:100120005D0D00085D0D00085D0D00085D0D000807
:1001300000000000000000000000000000000000BF
:1001400000000000000000000000000000000000AF
:10015000000000000000000000000000000000009F
:10016000000000000000000000000000000000008F
:10017000000000000000000000000000000000007F
:10018000000000000000000000000000000000006F
:10019000000000000000000000000000000000005F
:1001A000000000000000000000000000000000004F
:1001B000000000000000000000000000000000003F
:1001C000000000000000000000000000000000002F
:1001D000000000000000000000000000000000001F
:0401E0005FF8E0F1F3
:1001E40010B5054C237833B9044B13B10448AFF36D
:1001F40000800123237010BD0C00002000000000CB
:10020400B80D000808B5034B1BB103490348AFF30D
:10021400008008BD0000000010000020B80D000898
:1002240038B50E4B054618784FF47A73B3FBF0F3E8
:100234000B4A1068B0FBF3F000F092F8044658B98A
:100244000F2D09D8024629464FF0FF3000F054F82C
:10025400044B20461D6038BD012038BD000000203D
:100264000800002004000020074A08B51368032092
:1002740043F01003136000F02DF80020FFF7D0FFC7
:1002840000F0F4FC002008BD00200240034A044BA7
:1002940011681B780B441360704700BF28000020CE
:1002A40000000020014B1868704700BF28000020A0
:1002B40038B50446FFF7F6FF0546631C1EBF044B22
:1002C4001B78E418FFF7EEFF401B8442FAD838BDD0
:1002D40000000020074A0002D36800F4E06023F421
:1002E400E0631B041B0C43F0BF6343F4003303437C
:1002F400D360704700ED00E0174B30B5DC68C4F301
:100304000224C4F10703251D042B28BF0423062D52
:100314004FF0010598BF002405FA03F303F1FF33FE
:1003240088BF033C1940A14005FA04F4013C224073
:10033400002842EA01024FEA0212AFBF00F1604016
:10034400064B00F00F00D2B2A5BFD2B200F5614057
:100354001A5480F8002330BD00ED00E014ED00E0F5
:100364000138B0F1807F0AD2F021064B064A58606A
:1003740082F823100020072298601A607047012039
:10038400704700BF10E000E000ED00E02DE9F74FFA
:10039400002216466C4F6D4BDFF8B8E1DFF8B8C1A8
:1003A4004FF001080C6808FA06F808EA0404A045AE
:1003B40040F085804D68122D00F0B78000F28D80EA
:1003C400022D00F0AF8000F28180002D00F09180BA
:1003D400012D00F0A5804FF00F09FF2C93BF82463A
:1003E40006F18045083DD0F800B092BFB500D0F8C2
:1003F40004B0AD0009FA05F82BEA080802FA05F57D
:1004040088BF00F1040A48EA0505CAF80050D1F88B
:1004140004A01AF0805F52D0BD6926F0030845F0AD
:100424000105BD61BD6908F1804805F0010501952C
:1004340008F5803806F0030B019D4FEA8B0BD8F8C2
:10044400085009FA0BF925EA0909414DA84271D06F
:1004540005F58065A8426FD005F58065A8426DD08A
:1004640005F58065A8426BD005F58065A84269D082
:1004740070450CBF0525062505FA0BF545EA090567
:10048400C8F808501D681AF4803F14BF2543A543DB
:100494001D605D681AF4003F14BF2543A5435D60E9
:1004A4009D681AF4801F14BF2543A5439D60DD6831
:1004B4001AF4001F14BF2C4325EA0404DC6001363F
:1004C400102E7FF46DAF03B0BDE8F08F032D25D05F
:1004D400112D80D1CA6804327DE7654509D012D850
:1004E400DFF878904D4504D009F580394D457FF407
:1004F40072AF8A68E2B1012A0CBFC0F81080C0F85C
:100504001480082267E7DFF858904D45F1D009F5CB
:1005140080394D45EDD0A9F58019E7E700225AE767
:10052400CA6858E7CA68083255E7CA680C3252E705
:10053400042250E700259FE701259DE702259BE75C
:10054400032599E7042597E70010024000040140C1
:1005540000080140001C014000002110000011109F
:10056400000031100AB1016170470904FBE7000083
:1005740003682DE9F341DB07054610D42B689F0778
:100584005ED42B68190700F195802B685A0700F197
:10059400BF80EA69002A40F02D81002014E0904CCD
:1005A400636803F00C03042B07D0636803F00C03A7
:1005B400082B0CD16368DE0309D523689C03DDD5C1
:1005C4006B68002BDAD1012002B0BDE8F0816B68C2
:1005D400B3F5803F10D1236843F480332360FFF7E1
:1005E40061FE064623689803C8D4FFF75BFE801BB0
:1005F4006428F7D90320E7E79BB9236823F4803301
:100604002360236823F480232360FFF74BFE064610
:1006140023689903B2D5FFF745FE801B6428F7D9F8
:10062400E8E7B3F5A02F236803D143F480232360C4
:10063400D1E723F480332360236823F48023CDE7B8
:10064400674C636813F00C0F07D0636803F00C0366
:10065400082B10D16368DA030DD423689B0702D5F5
:100664002B69012BAFD123686A6923F0F80343EAAD
:10067400C203236085E72A695A4B6AB101221A60D2
:10068400FFF710FE064623689F07ECD4FFF70AFE27
:10069400801B0228F7D9ADE71A60FFF703FE064670
:1006A400236898077FF56DAFFFF7FCFD801B0228D8
:1006B400F6D99FE7AA694A4C4B4BDAB101221A607A
:1006C400FFF7F0FD0646636A9B070DD54FF4FA5217
:1006D400464B1B68B3FBF2F3019300BF019B5A1E08
:1006E4000192002BF9D150E7FFF7DCFD801B0228B3
:1006F400E9D97FE71A60FFF7D5FD0646636A9F07CD
:100704007FF543AFFFF7CEFD801B0228F6D971E7D2
:10071400334CE369D80024D40127E36943F08053C0
:10072400E361E36903F080530093009B304E336828
:10073400D90518D5EB68012B26D1236A43F00103B0
:100744002362FFF7AFFD41F288368046236A9B0798
:100754003FD5002F3FF41DAFE36923F08053E361DD
:1007640017E70027E2E7336843F480733360FFF749
:1007740099FD80463368DA05DCD4FFF793FDA0EBDE
:1007840008006428F6D935E7ABB9236A41F2883802
:1007940023F001032362236A23F004032362FFF797
:1007A40081FD0646236A9807D3D5FFF77BFD801B9E
:1007B4004045F7D91EE7052B236A03D143F0040310
:1007C4002362BAE723F001032362236A23F00403BC
:1007D400B6E7FFF767FDA0EB0800B042B6D909E71A
:1007E40000100240000042428004424208000020FF
:1007F40000700040224C636803F00C03082B3FF4A4
:10080400E2AE00231F4E022A33602BD1FFF74AFDCC
:100814000746236899011FD42B6AB3F5803F05D19D
:100824006268A96822F400320A436260696A6268F5
:100834000B4322F474121343636001233360FFF704
:1008440031FD054623689A013FF5A7AEFFF72AFD5F
:10085400401B0228F6D9CDE6FFF724FDC01B022871
:10086400D7D9C7E6FFF71EFD054623689B017FF530
:1008740094AEFFF717FD401B0228F6D9BAE600BF75
:10088400001002406000424230B5194B87B002AC00
:1008940003F11005224618685968083303C2AB42B5
:1008A4001446F7D101238DF80430022311498DF841
:1008B40005304B6803F00C02082A17D1C3F38342B6
:1008C40006A80244DB0312F8102C0CD54B680A4826
:1008D400C3F34043504306AA134413F8143CB0FB3B
:1008E400F3F007B030BD05485043FAE70248F8E793
:1008F400D00D00080010024000127A0000093D00EB
:10090400544A2DE9F0411368054603F007038B426E
:100914000E462AD329688C0734D4CA0747D44D4AD3
:10092400136803F007039E42C0F082802A684A4C91
:1009340012F0040F40F08780130706D563682A6914
:1009440023F4605343EAC2036360FFF79DFF6368C7
:10095400424AC3F30313D35CD840414B18600020D0
:10096400FFF75EFC0020BDE8F081136823F0070365
:100974000B431360136803F007039942CAD00120A4
:10098400BDE8F081344B11F0040F1EBF5A6842F4E5
:10099400E0625A60080742BF5A6842F460525A60E3
:1009A4005A68A86822F0F00202435A60B5E76A6800
:1009B400294C012A23681CD113F4003FDFD063685B
:1009C40041F2883823F0030313436360FFF76AFCA2
:1009D4006B680746012B14D1636803F00C03042BE6
:1009E4009DD0FFF75FFCC01B4045F5D90320BDE84F
:1009F400F081022A02D113F0007FDFE713F0020F27
:100A0400DCE7022B0FD1636803F00C03082B86D0BC
:100A1400FFF748FCC01B4045F5D9E7E7FFF742FC68
:100A2400C01B4045E2D8636813F00C0FF6D176E79B
:100A3400136823F0070333431360136803F00703B9
:100A44009E429CD172E76368E96823F4E0630B4338
:100A5400636071E70020024000100240E00D0008CE
:100A64000800002000B591B02822002106A800F05B
:100A740099F91422002101A800F094F902230693A5
:100A840001230A93102306A80B93FFF771FD00219D
:100A94000F2301A801930291039104910591FFF79B
:100AA4002FFF11B05DF804FB00B589B0FFF7DCFB44
:100AB400FFF7D8FF102200210DEB020000F072F9BD
:100AC400674B4FF481619A69664842F010029A615B
:100AD4009A69002502F010020092009A9A69022491
:100AE40042F020029A619A69012602F020020192E2
:100AF400019A9A6942F008029A619A6902F008021E
:100B04000292029A9A6942F004029A619B69012254
:100B140003F004030393039BFFF724FD00224FF427
:100B240070415048FFF71EFD01224FF400414E482A
:100B3400FFF718FD4FF2084304A94A4804930695A9
:100B440007940596FFF722FC4FF4004304A9464896
:100B54000695079404930596FFF718FC05F1804564
:100B6400404C05F5843500224FF480612046FFF7A0
:100B7400F9FC6420FFF79CFB01224FF480612046BE
:100B8400FFF7F0FC6420FFF793FB00224FF40041D1
:100B94002846FFF7E7FC6420FFF78AFB01224FF4A5
:100BA40000412846FFF7DEFC6420FFF781FB0022AA
:100BB40008212046FFF7D6FC6420FFF779FB0122C9
:100BC40008212046FFF7CEFC6420FFF771FB0122C9
:100BD4004FF480512046FFF7C5FC6420FFF768FB03
:100BE40001224FF400512046FFF7BCFC6420FFF7BC
:100BF4005FFB01224FF480412046FFF7B3FC6420E1
:100C0400FFF756FB01224FF400412046FFF7AAFCF0
:100C14006420FFF74DFB00224FF480512046FFF77C
:100C2400A1FC6420FFF744FB00224FF4005120464E
:100C3400FFF798FC6420FFF73BFB00224FF4804150
:100C44002046FFF78FFC6420FFF732FB204600228A
:100C54004FF40041FFF786FC6420FFF729FB82E78D
:100C640000100240000C0140000801400E4B82B00D
:100C74009A6942F001029A619A6902F001020092B3
:100C8400009ADA6942F08052DA61DB69074A03F0BC
:100C940080530193019B536823F0E06343F0007396
:100CA400536002B0704700BF0010024000000140D2
:100CB4007047FEE7FEE7FEE7FEE7704770477047C0
:100CC400FFF7E4BA0F4B1A6842F001021A60596840
:100CD4000D4A0A405A601A6822F0847222F4803263
:100CE4001A601A6822F480221A605A6822F4FE02FA
:100CF4005A604FF41F029A604FF00062034B9A60EF
:100D0400704700BF001002400000FFF800ED00E053
:100D1400002103E00B4B5B58435004310A480B4B52
:100D240042189A42F6D30A4A02E0002342F8043BEE
:100D3400084B9A42F9D3FFF7C5FF00F00FF8FFF70D
:100D4400B3FE7047F80D0008000000200C000020DE
:100D54000C0000202C000020FEE7000070B50025E8
:100D64000C4E0D4CA41BA410A54209D100F022F88E
:100D740000250A4E0A4CA41BA410A54205D170BD3F
:100D840056F8253098470135EEE756F82530984750
:100D94000135F2E7F00D0008F00D0008F00D000831
:100DA400F40D000803460244934200D1704703F84F
:100DB400011BF9E7F8B500BFF8BC08BC9E467047B4
:0C0DC400F8B500BFF8BC08BC9E467047A4
:100DD00002030405060708090A0B0C0D0E0F10107C
:100DE00000000000000000000102030406070809DB
:040DF00009020008EC
:040DF400E50100080D
:0C0DF800010000001000000000A24A04EE
:0400000508000D15CD
:00000001FF
