:020000040800F2
:1000000000C00020FD2F0008E92E0008F52E000892
:10001000FB2E0008012F0008072F00080000000039
:100020000000000000000000000000000D2F00088C
:10003000192F000800000000252F0008312F0008AC
:1000400045300008453000084530000845300008BC
:1000500045300008453000084530000845300008AC
:10006000453000084530000845300008453000089C
:10007000453000084530000845300008453000088C
:10008000453000084530000845300008453000087C
:10009000453000084530000845300008453000086C
:1000A000453000084530000845300008453000085C
:1000B000453000084530000845300008453000084C
:1000C000453000084530000845300008453000083C
:1000D000453000084530000845300008453000082C
:1000E000453000084530000845300008453000081C
:1000F000453000084530000845300008453000080C
:1001000045300008453000084530000845300008FB
:1001100045300008453000084530000845300008EB
:1001200045300008453000084530000845300008DB
:1001300000000000000000000000000000000000BF
:1001400000000000000000000000000000000000AF
:10015000000000000000000000000000000000009F
:10016000000000000000000000000000000000008F
:10017000000000000000000000000000000000007F
:10018000000000000000000000000000000000006F
:10019000000000000000000000000000000000005F
:1001A000000000000000000000000000000000004F
:1001B000000000000000000000000000000000003F
:1001C000000000000000000000000000000000002F
:1001D000000000000000000000000000000000001F
:0401E0005FF8E0F1F3
:1001E80010B5054C237833B9044B13B10448AFF369
:1001F80000800123237010BD7C0600200000000051
:100208009C5E000808B5034B1BB103490348AFF3D4
:10021800008008BD00000000800600209C5E0008E9
:10022800034613F8012B002AFBD1181A013870472E
:1002380081F0004102E000BF83F0004330B54FEA8F
:1002480041044FEA430594EA050F08BF90EA020FFC
:100258001FBF54EA000C55EA020C7FEA645C7FEA8F
:10026800655C00F0E2804FEA5454D4EB5555B8BFB2
:100278006D420CDD2C4480EA020281EA030382EA23
:10028800000083EA010180EA020281EA0303362DB5
:1002980088BF30BD11F0004F4FEA01314FF4801C88
:1002A8004CEA113102D0404261EB410113F0004F9A
:1002B8004FEA03334CEA133302D0524263EB430351
:1002C80094EA050F00F0A780A4F10104D5F1200EEF
:1002D8000DDB02FA0EFC22FA05F2801841F100014A
:1002E80003FA0EF2801843FA05F359410EE0A5F11E
:1002F80020050EF1200E012A03FA0EFC28BF4CF04F
:10030800020C43FA05F3C01851EBE37101F0004504
:1003180007D54FF0000EDCF1000C7EEB00006EEB11
:100328000101B1F5801F1BD3B1F5001F0CD349089B
:100338005FEA30004FEA3C0C04F101044FEA4452F2
:1003480012F5800F80F09A80BCF1004F08BF5FEA79
:10035800500C50F1000041EB045141EA050130BD59
:100368005FEA4C0C404141EB010111F4801FA4F1FC
:100378000104E9D191F0000F04BF01460020B1FA51
:1003880081F308BF2033A3F10B03B3F120020CDA89
:100398000C3208DD02F1140CC2F10C0201FA0CF067
:1003A80021FA02F10CE002F11402D8BFC2F1200CCC
:1003B80001FA02F120FA0CFCDCBF41EA0C01904082
:1003C800E41AA2BF01EB0451294330BD6FEA0404CB
:1003D8001F3C1CDA0C340EDC04F11404C4F12002B6
:1003E80020FA04F001FA02F340EA030021FA04F3C8
:1003F80045EA030130BDC4F10C04C4F1200220FA1F
:1004080002F001FA04F340EA0300294630BD21FA5C
:1004180004F0294630BD94F0000F83F4801306BF22
:1004280081F480110134013D4EE77FEA645C18BF16
:100438007FEA655C29D094EA050F08BF90EA020FAD
:1004480005D054EA000C04BF1946104630BD91EAA5
:10045800030F1EBF0021002030BD5FEA545C05D1A8
:100468004000494128BF41F0004130BD14F58004E7
:100478003CBF01F5801130BD01F0004545F0FE415B
:1004880041F470014FF0000030BD7FEA645C1ABF90
:10049800194610467FEA655C1CBF0B46024650EAC7
:1004A800013406BF52EA033591EA030F41F40021F3
:1004B80030BD00BF90F0000F04BF0021704730B579
:1004C8004FF4806404F132044FF000054FF000014E
:1004D80050E700BF90F0000F04BF0021704730B50F
:1004E8004FF4806404F1320410F0004548BF4042E4
:1004F8004FF000013EE700BF42004FEAE2014FEA39
:1005080031014FEA02701FBF12F07F4393F07F4F13
:1005180081F06051704792F0000F14BF93F07F4F45
:10052800704730B54FF4607401F0004521F0004188
:1005380020E700BF50EA010208BF704730B54FF00E
:1005480000050AE050EA010208BF704730B511F013
:10055800004502D5404261EB41014FF4806404F14B
:1005680032045FEA915C3FF4DCAE4FF003025FEACD
:10057800DC0C18BF03325FEADC0C18BF033202EB55
:10058800DC02C2F1200300FA03FC20FA02F001FAAF
:1005980003FE40EA0E0021FA02F11444C1E600BF4E
:1005A80070B54FF0FF0C4CF4E06C1CEA11541DBF01
:1005B8001CEA135594EA0C0F95EA0C0F00F0DEF8CC
:1005C8002C4481EA030621EA4C5123EA4C5350EAB1
:1005D800013518BF52EA033541F4801143F4801302
:1005E80038D0A0FB02CE4FF00005E1FB02E506F093
:1005F8000042E0FB03E54FF00006E1FB03569CF0E8
:10060800000F18BF4EF0010EA4F1FF04B6F5007FED
:1006180064F5407404D25FEA4E0E6D4146EB06065F
:1006280042EAC62141EA55514FEAC52040EA5E50E8
:100638004FEACE2EB4F1FD0C88BFBCF5E06F1ED892
:10064800BEF1004F08BF5FEA500E50F1000041EBC9
:10065800045170BD06F0004646EA010140EA020076
:1006680081EA0301B4EB5C04C2BFD4EB0C0541EA98
:10067800045170BD41F480114FF0000E013C00F3AD
:10068800AB8014F1360FDEBF002001F0004170BDD1
:10069800C4F10004203C35DA0C341BDC04F11404EA
:1006A800C4F1200500FA05F320FA04F001FA05F276
:1006B80040EA020001F0004221F0004110EBD37043
:1006C80021FA04F642EB06015EEA430E08BF20EA6F
:1006D800D37070BDC4F10C04C4F1200500FA04F312
:1006E80020FA05F001FA04F240EA020001F00041A4
:1006F80010EBD37041F100015EEA430E08BF20EA17
:10070800D37070BDC4F1200500FA05F24EEA020E5E
:1007180020FA04F301FA05F243EA020321FA04F08D
:1007280001F0004121FA04F220EA020000EBD37044
:100738005EEA430E08BF20EAD37070BD94F0000F44
:100748000FD101F00046400041EB010111F4801F78
:1007580008BF013CF7D041EA060195F0000F18BF29
:10076800704703F00046520043EB030313F4801F65
:1007780008BF013DF7D043EA0603704794EA0C0F1F
:100788000CEA135518BF95EA0C0F0CD050EA410635
:1007980018BF52EA4306D1D181EA030101F00041B2
:1007A8004FF0000070BD50EA410606BF10461946DA
:1007B80052EA430619D094EA0C0F02D150EA0136E6
:1007C80013D195EA0C0F05D152EA03361CBF104627
:1007D80019460AD181EA030101F0004141F0FE41C6
:1007E80041F470014FF0000070BD41F0FE4141F44A
:1007F800780170BD70B54FF0FF0C4CF4E06C1CEA4A
:1008080011541DBF1CEA135594EA0C0F95EA0C0FFE
:1008180000F0A7F8A4EB050481EA030E52EA0335B9
:100828004FEA013100F088804FEA03334FF08055DA
:1008380045EA131343EA12634FEA022245EA111507
:1008480045EA10654FEA00260EF000419D4208BFB8
:10085800964244F1FD0404F5407402D25B084FEA65
:100868003202B61A65EB03055B084FEA32024FF411
:1008780080104FF4002CB6EB020E75EB030E22BF6E
:10088800B61A754640EA0C005B084FEA3202B6EB2E
:10089800020E75EB030E22BFB61A754640EA5C00DD
:1008A8005B084FEA3202B6EB020E75EB030E22BF6D
:1008B800B61A754640EA9C005B084FEA3202B6EB6E
:1008C800020E75EB030E22BFB61A754640EADC002D
:1008D80055EA060E18D04FEA051545EA16754FEA8F
:1008E80006164FEAC30343EA52734FEAC2025FEAAD
:1008F8001C1CC0D111F4801F0BD141EA00014FF03C
:1009080000004FF0004CB6E711F4801F04BF01430C
:100918000020B4F1FD0C88BFBCF5E06F3FF6AFAE28
:10092800B5EB030C04BFB6EB020C5FEA500C50F1B8
:10093800000041EB045170BD0EF0004E4EEA11313B
:1009480014EB5C04C2BFD4EB0C0541EA045170BD42
:1009580041F480114FF0000E013C90E645EA060E86
:100968008DE60CEA135594EA0C0F08BF95EA0C0FB4
:100978003FF43BAF94EA0C0F0AD150EA01347FF4FC
:1009880034AF95EA0C0F7FF425AF104619462CE7D3
:1009980095EA0C0F06D152EA03353FF4FDAE104636
:1009A800194622E750EA410618BF52EA43067FF487
:1009B800C5AE50EA41047FF40DAF52EA43057FF417
:1009C800EBAE12E74FF0FF3C06E000BF4FF0010C22
:1009D80002E000BF4FF0010C4DF804CD4FEA410C86
:1009E8007FEA6C5C4FEA430C18BF7FEA6C5C1BD053
:1009F80001B050EA410C0CBF52EA430C91EA030FD4
:100A080002BF90EA020F0020704710F1000F91EA30
:100A1800030F58BF994208BF90422CBFD8176FEAFE
:100A2800E37040F0010070474FEA410C7FEA6C5CCC
:100A380002D150EA013C07D14FEA430C7FEA6C5CD3
:100A4800D6D152EA033CD3D05DF8040B704700BFFF
:100A58008446104662468C461946634600E000BF4D
:100A680001B5FFF7B7FF002848BF10F1000F01BD1F
:100A78004DF808EDFFF7F4FF0CBF012000205DF8EA
:100A880008FB00BF4DF808EDFFF7EAFF34BF01206F
:100A980000205DF808FB00BF4DF808EDFFF7E0FF08
:100AA80094BF012000205DF808FB00BF4DF808ED59
:100AB800FFF7CEFF94BF012000205DF808FB00BFC0
:100AC8004DF808EDFFF7C4FF34BF012000205DF8A2
:100AD80008FB00BF4FEA410C7FEA6C5C02D150EA88
:100AE800013C0AD14FEA430C7FEA6C5C02D152EA1E
:100AF800033C02D14FF0000070474FF001007047EF
:100B08004FEA410212F5001215D211D56FF478732D
:100B1800B3EB625212D94FEAC12343F0004343EAD0
:100B2800505311F0004F23FA02F018BF40427047AB
:100B38004FF00000704750EA013005D111F0004035
:100B480008BF6FF0004070474FF00000704700BFCB
:100B58004FEA4102B2F1E04324BFB3F5001CDCF1D7
:100B6800FE5C0DD901F0004C4FEAC0024CEA50700F
:100B7800B2F1004F40EB830008BF20F0010070473E
:100B880011F0804F21D113F13872BCBF01F0004041
:100B9800704741F480114FEA5252C2F11802C2F173
:100BA800200C10FA0CF320FA02F018BF40F00100F4
:100BB8004FEAC1234FEAD32303FA0CFC40EA0C00A6
:100BC80023FA02F34FEA4303CCE77FEA625307D1E3
:100BD80050EA01331EBF4FF0FE4040F4400070471A
:100BE80001F0004040F0FE4040F40000704700BFB4
:100BF80053B94AB9002908BF00281CBF4FF0FF317C
:100C08004FF0FF3000F07AB9ADF1080C6DE904CE71
:100C180000F006F8DDF804E0DDE9022304B07047CF
:100C28002DE9F0478C460E460446089D002B50D10E
:100C38008A4217466CD9B2FA82FEBEF1000F0BD079
:100C4800CEF1200C01FA0EF620FA0CFC02FA0EF78F
:100C58004CEA060C00FA0EF43A0CBCFBF2F9BBB2F3
:100C680002FB19CC09FB03FA4FEA144848EA0C4680
:100C7800B2450AD9F61909F1FF3180F02581B2454C
:100C880040F22281A9F102093E44A6EB0A06B6FB0E
:100C9800F2F002FB106600FB03F3A4B244EA064438
:100CA800A34209D9E41900F1FF3280F00B81A34275
:100CB80040F2088102383C440021E41A40EA094025
:100CC800002D62D0002324FA0EF42C606B60BDE87E
:100CD800F0878B4207D9002D55D0002185E84100C7
:100CE8000846BDE8F087B3FA83F1002940F08F8009
:100CF800B34202D3824200F2FC80841A66EB0306F8
:100D08000120B446002D40D085E81010BDE8F087DA
:100D180012B90127B7FBF2F7B7FA87FEBEF1000F49
:100D280035D10121F61B4FEA174C1FFA87F8B6FB9D
:100D3800FCF20CFB126608FB02F0230C43EA0646A1
:100D4800B04207D9F61902F1FF3302D2B04200F2DD
:100D5800D2801A46361AB6FBFCF00CFB106608FB6C
:100D680000F8A3B243EA0644A04507D9E41900F104
:100D7800FF3302D2A04500F2B9801846A4EB08045C
:100D880040EA02409CE729462846BDE8F08707FA72
:100D98000EF7CEF1200326FA03F24FEA174CB2FB06
:100DA800FCF11FFA87F80CFB112206FA0EF620FA5E
:100DB80003F301FB08F933431E0C46EA0246B1452A
:100DC80000FA0EF409D9F61901F1FF3280F08C808F
:100DD800B14540F2898002393E44A6EB0906B6FBCC
:100DE800FCF00CFB106200FB08F99EB246EA0246D2
:100DF800B14507D9F61900F1FF3371D2B1456FD962
:100E080002383E44A6EB090640EA01418FE7C1F1EA
:100E1800200722FA07F88B4048EA030326FA07F46A
:100E28004FEA134EB4FBFEF91FFA83FC0EFB19447C
:100E38008E4020FA07F809FB0CFA48EA06084FEA40
:100E4800184646EA0444A24502FA01F200FA01F6FD
:100E580008D9E41809F1FF3044D2A24542D9A9F1D2
:100E680002091C44A4EB0A04B4FBFEF00EFB104478
:100E780000FB0CFC1FFA88F848EA0444A44507D98B
:100E8800E41800F1FF3E29D2A44527D902381C44B2
:100E980040EA0940A0FB0289A4EB0C0CCC45C246F1
:100EA800CE4615D312D055B1B6EB0A036CEB0E063D
:100EB80006FA07F7CB401F43CE402F606E60002133
:100EC800BDE8F0871046F7E68946DEE64645EAD2F1
:100ED800B8EB020A69EB030E0138E4E77046D7E77E
:100EE80018468FE78146BDE7114676E702383C444D
:100EF80044E7084606E7023A3E442BE7704700BF3E
:100F080080B500AF084A084B1B6843F01003136014
:100F1800032000F0E5FD002000F008F801F072FF62
:100F28000023184680BD00BF0020024080B582B073
:100F380000AF7860124B1A68124B1B7819464FF4B1
:100F48007A73B3FBF1F3B2FBF3F3184600F0EFFD4D
:100F58000346002B01D001230EE07B680F2B0AD833
:100F6800002279684FF0FF3000F0C5FD064A7B6823
:100F78001360002300E0012318460837BD4680BDF2
:100F880008000020040000200000002080B400AF0A
:100F9800054B1B781A46054B1B681344034A13601C
:100FA80000BFBD4680BC704704000020D00600206A
:100FB80080B400AF024B1B681846BD4680BC704722
:100FC800D006002080B584B000AF7860FFF7F0FF4E
:100FD800B8607B68FB60FB68B3F1FF3F05D0094B45
:100FE8001B781A46FB681344FB6000BFFFF7E0FF5D
:100FF8000246BB68D21AFB689A42F7D300BF103783
:10100800BD4680BD0400002080B586B000AF786082
:101018000023FB7500233B610023BB600023FB60BA
:101028007B68002B01D10123CEE07B689B68002BF5
:101038007B689B6A002B09D17B680022DA627B6897
:10104800002283F82420786801F00EFF786800F009
:10105800C3FB0346FB757B689B6A03F01003002BF8
:1010680040F0A980FB7D002B40F0A5807B689B6A3F
:1010780023F4885323F0020343F002027B689A6248
:101088007B685A687B681B6851498B420AD17B6828
:10109800DB69B3F5402F02D07B68DB6904E04FF4CD
:1010A800002301E07B68DB691A437B681B7B5B00DC
:1010B8001343BA681343BB607B689B68B3F5807FB2
:1010C80003D07B689B68012B02D14FF4807300E04A
:1010D80000233A6913433B617B681B7D012B19D1BF
:1010E8007B681B7B002B09D17B689B69013B5A03FA
:1010F8003B69134343F400633B610BE07B689B6AE5
:1011080043F020027B689A627B68DB6A43F0010245
:101118007B68DA627B681B687A681268526822F416
:1011280069413A690A435A607B681A687B681B6898
:101138009968284B0B40B9680B4393607B689B68A0
:10114800B3F5807F03D07B689B68012B04D17B6853
:101158001B69013B1B05FB607B681B687A6812688A
:10116800D26A22F47001FA680A43DA627B681B6863
:101178009A68194B1340BA6893420BD17B680022D6
:10118800DA627B689B6A23F0030343F001027B6801
:101198009A6218E07B689B6A23F0120343F01002FE
:1011A8007B689A627B68DB6A43F001027B68DA62DB
:1011B8000123FB7507E07B689B6A43F010027B689C
:1011C8009A620123FB75FB7D18461837BD4680BD22
:1011D800003C0140FDF7E1FFFE0E1FFF80B584B023
:1011E80000AF78600023FB737B6893F82430012BF1
:1011F80001D1022398E07B68012283F824207868D3
:1012080000F098FA0346FB73FB7B002B40F08780C5
:101218007B689B6A23F4407323F0010343F48072D4
:101228007B689A627B681B68414A934205D1414BAF
:101238005B6803F47023002B15D17B689B6A23F449
:1012480080127B689A627B681B685B6803F4806322
:10125800002B26D07B689B6A23F4405343F48052CA
:101268007B689A621DE07B689B6A43F480127B6806
:101278009A627B681B682F4A934204D07B681B687C
:101288002B4A93420DD12B4B5B6803F48063002BF0
:1012980007D07B689B6A23F4405343F480527B68F1
:1012A8009A627B689B6A03F48053002B06D07B68A4
:1012B800DB6A23F006027B68DA6202E07B680022C0
:1012C800DA627B68002283F824207B681B686FF051
:1012D80002021A607B681B689B6803F46023B3F5FD
:1012E800602F13D17B681B68114A934205D1114BBB
:1012F8005B6803F47023002B08D17B681B687A684D
:101308001268926842F4A0029A600CE07B681B683D
:101318007A681268926842F480129A6003E07B68E7
:10132800002283F82420FB7B18461037BD4680BD79
:10133800002801400024014090B587B000AF7860D4
:10134800396000237B610023FB6000233B61FFF7CA
:101358002FFE78617B681B689B6803F48073002B01
:101368000BD07B689B6A43F020027B689A627B689B
:10137800002283F824200123C8E07B681B685B688F
:1013880003F48073002B2AD17B681B68DB6A03F4A3
:101398007003002B23D11AE03B68B3F1FF3F16D04E
:1013A8003B68002B07D0FFF703FE02467B69D21A81
:1013B8003B689A420BD97B689B6A43F004027B68BE
:1013C8009A627B68002283F8242003239EE07B68CE
:1013D8001B681B6803F00203002BDDD06CE04D4B4B
:1013E8001C68022001F0F0F90346B4FBF3F27B68B5
:1013F8001B681969484B0B40002B18D17B681B6888
:10140800D968464B0B40002B11D17B681B681969C2
:10141800434B0B40002B08D17B681B68D968414BB4
:101428000B40002B01D1142320E029231EE07B6808
:101438001B6819693A4B0B40002B06D17B681B6867
:10144800D968384B0B40002B0DD07B681B68196995
:10145800354B0B40002B08D17B681B68D968324B91
:101468000B40002B01D1542300E0FC2303FB02F3C3
:101478003B611DE03B68B3F1FF3F16D03B68002B92
:1014880007D0FFF795FD02467B69D21A3B689A425E
:101498000BD97B689B6A43F004027B689A627B687D
:1014A800002283F82420032330E0FB680133FB602B
:1014B800FA683B699A42DDD37B681B686FF01202B9
:1014C8001A607B689B6A43F400727B689A627B6847
:1014D8001B689B6803F46023B3F5602F15D17B6804
:1014E8001B7B002B11D17B689B6A23F480727B687D
:1014F8009A627B689B6A03F48053002B05D17B6852
:101508009B6A43F001027B689A62002318461C37E5
:10151800BD4690BD08000020244992242449920029
:1015280092244912922449004992240080B483B03D
:1015380000AF78607B681B68DB6C18460C37BD46CB
:1015480080BC704790B484B000AF786039600023E5
:10155800FB730023BB607B6893F82430012B01D117
:101568000223DCE07B68012283F824203B685B6867
:10157800062B1CD87B6819687B681B68586B3B680E
:101588005A6813469B001344053B1F2202FA03F3D3
:10159800DB4318403B681C683B685A6813469B004D
:1015A8001344053B04FA03F303434B633CE03B68F5
:1015B8005B680C2B1CD87B6819687B681B68186BE8
:1015C8003B685A6813469B001344233B1F2202FAC8
:1015D80003F3DB4318403B681C683B685A681346B2
:1015E8009B001344233B04FA03F303430B631BE000
:1015F8007B6819687B681B68D86A3B685A68134619
:101608009B001344413B1F2202FA03F3DB431840BB
:101618003B681C683B685A6813469B001344413B6F
:1016280004FA03F30343CB623B681B68092B1CD9FC
:101638007B6819687B681B68D8683B681A6813461A
:101648005B0013441E3B072202FA03F3DB431840F6
:101658003B689C683B681A6813465B0013441E3B52
:1016680004FA03F30343CB6019E07B6819687B68CD
:101678001B6818693B681A6813465B001344072205
:1016880002FA03F3DB4318403B689C683B681A681E
:1016980013465B00134404FA03F303430B613B68EE
:1016A8001B68102B03D03B681B68112B32D17B6859
:1016B8001B681D4A934225D17B681B689B6803F40D
:1016C8000003002B26D17B681B687A681268926831
:1016D80042F400029A603B681B68102B1AD1134B26
:1016E8001B68134AA2FB03239A0C13469B0013445E
:1016F8005B00BB6002E0BB68013BBB60BB68002BC2
:10170800F9D107E07B689B6A43F020027B689A6204
:101718000123FB737B68002283F82420FB7B184697
:101728001037BD4690BC70470024014008000020D7
:1017380083DE1B4380B584B000AF78600023FB6074
:101748000023BB607B681B689B6803F00103012BC7
:1017580039D07B681B687A681268926842F0010287
:101768009A601B4B1B681B4AA2FB03239B0CBB60A4
:1017780002E0BB68013BBB60BB68002BF9D1FFF7F7
:1017880017FCF86018E0FFF713FC0246FB68D31A51
:10179800022B11D97B689B6A43F010027B689A621E
:1017A8007B68DB6A43F001027B68DA627B680022AF
:1017B80083F82420012307E07B681B689B6803F0FB
:1017C8000103012BDFD1002318461037BD4680BD29
:1017D8000800002083DE1B4380B584B000AF78602A
:1017E8000023FB607B681B689B6803F00103012BE7
:1017F80027D17B681B687A681268926822F0010218
:101808009A60FFF7D5FBF86014E0FFF7D1FB0246BA
:10181800FB68D31A022B0DD97B689B6A43F0100230
:101828007B689A627B68DB6A43F001027B68DA6254
:10183800012307E07B681B689B6803F00103012B09
:10184800E3D0002318461037BD4680BD90B587B059
:1018580000AF78600023FB750023FB607B6893F87A
:101868002430012B01D1022386E07B68012283F812
:1018780024207868FFF7B0FF0346FB75FB7D002B3B
:1018880075D17B689B6A23F4885323F0020343F0E5
:1018980002027B689A623A4B1C68022000F094FFAF
:1018A8000346B4FBF3F35B00FB6002E0FB68013B1B
:1018B800FB60FB68002BF9D17868FFF73BFF7B687A
:1018C8001B687A681268926842F008029A60FFF70B
:1018D8006FFB386114E0FFF76BFB02463B69D31AD4
:1018E8000A2B0DD97B689B6A23F0120343F0100280
:1018F8007B689A627B68002283F8242001233BE0FE
:101908007B681B689B6803F00803002BE3D17B68A6
:101918001B687A681268926842F004029A60FFF7BE
:1019280047FB386114E0FFF743FB02463B69D31AD3
:101938000A2B0DD97B689B6A23F0120343F010022F
:101948007B689A627B68002283F82420012313E0D5
:101958007B681B689B6803F00403002BE3D17B685A
:101968009B6A23F0030343F001027B689A627B6859
:10197800002283F82420FB7D18461C37BD4690BD05
:101988000800002080B485B000AF78607B6803F061
:101998000703FB600C4BDB68BB60BA684FF6FF03BC
:1019A8001340BB60FB681A02BB68134343F0BF6374
:1019B80043F40033BB60044ABB68D36000BF1437EC
:1019C800BD4680BC704700BF00ED00E080B400AFAA
:1019D800044BDB681B0A03F007031846BD4680BCAE
:1019E800704700BF00ED00E080B483B000AF03464D
:1019F8003960FB7197F90730002B0ADB0D4997F91D
:101A080007303A68D2B21201D2B20B4483F80023ED
:101A18000AE00949FB7903F00F03043B3A68D2B2A4
:101A28001201D2B20B441A7600BF0C37BD4680BCF7
:101A3800704700BF00E100E000ED00E080B489B02D
:101A480000AFF860B9607A60FB6803F00703FB61D8
:101A5800FB69C3F10703042B28BF0423BB61FB699F
:101A68000433062B02D9FB69033B00E000237B61AA
:101A78000122BB6902FA03F35A1EBB681A407B694C
:101A88009A4001217B6901FA03F3591E7B680B40D8
:101A9800134318462437BD4680BC704780B582B0D2
:101AA80000AF78607B68013BB3F1807F01D30123ED
:101AB8000FE00A4A7B68013B53600F214FF0FF306B
:101AC800FFF792FF054B00229A60044B07221A6029
:101AD800002318460837BD4680BD00BF10E000E06F
:101AE80080B582B000AF78607868FFF74BFF00BF21
:101AF8000837BD4680BD80B586B000AF0346B960E3
:101B08007A60FB7300237B61FFF760FF78617A6876
:101B1800B9687869FFF792FF024697F90F301146C6
:101B28001846FFF761FF00BF1837BD4680BD80B576
:101B380082B000AF78607868FFF7B0FF03461846B8
:101B48000837BD4680BD000080B48BB000AF786018
:101B5800396000237B6200233B6233E101227B6A08
:101B680002FA03F3FB613B681A68FB691340BB6127
:101B7800BA69FB699A4240F022813B685B68122B84
:101B880034D0122B0DD8022B2BD0022B04D8002BCB
:101B980031D0012B1CD048E0032B43D0112B1BD094
:101BA80043E08F4A934226D08D4A934206D88D4A05
:101BB800934220D08C4A93421DD036E08B4A934200
:101BC80019D08B4A934216D08A4A934213D02CE0FC
:101BD8003B68DB683B6228E03B68DB6804333B62B8
:101BE80023E03B68DB6808333B621EE03B68DB6848
:101BF8000C333B6219E03B689B68002B02D104233D
:101C08003B6212E03B689B68012B05D108233B62CD
:101C18007B68FA691A6108E008233B627B68FA6905
:101C28005A6102E000233B6200BFBB69FF2B01D869
:101C38007B6801E07B6804337B61BB69FF2B02D8BA
:101C48007B6A9B0002E07B6A083B9B003B617B69E7
:101C58001A680F213B6901FA03F3DB431A40396A1A
:101C68003B6901FA03F31A437B691A603B685B68B6
:101C780003F08053002B00F0A2805F4A5E4B9B6903
:101C880043F0010393615C4B9B6903F00103BB6064
:101C9800BB685A4A7B6A9B08023352F82330FB60C0
:101CA8007B6A03F003039B000F2202FA03F3DB4372
:101CB800FA681340FB607B68514A93421FD07B68E7
:101CC800504A934219D07B684F4A934213D07B689D
:101CD8004E4A93420DD07B684D4A934207D07B68A9
:101CE8004C4A934201D105230AE0062308E0042365
:101CF80006E0032304E0022302E0012300E00023BE
:101D08007A6A02F0030292009340FA681343FB6078
:101D18003A497B6A9B080233FA6841F823203B68FA
:101D28005B6803F48033002B06D03B493A4B1A68B2
:101D3800BB6913430B6006E03749374B1A68BB6928
:101D4800DB4313400B603B685B6803F40033002BF4
:101D580006D03149304B5A68BB6913434B6006E0E3
:101D68002D492D4B5A68BB69DB4313404B603B68D8
:101D78005B6803F48013002B06D02749264B9A682A
:101D8800BB6913438B6006E02349234B9A68BB6900
:101D9800DB4313408B603B685B6803F40013002B44
:101DA80006D01D491C4BDA68BB691343CB6006E0BB
:101DB8001949194BDA68BB69DB431340CB607B6A6E
:101DC80001337B623B681A687B6A22FA03F3002BB3
:101DD8007FF4C4AE00BF2C37BD4680BC704700BF3F
:101DE8000000211000001110000012100000311036
:101DF80000003210000022100010024000000140D4
:101E080000080140000C014000100140001401408E
:101E180000180140001C01400004014080B483B058
:101E280000AF78600B467B8013467B707B78002B75
:101E380003D07A887B681A6103E07B881A047B6880
:101E48001A6100BF0C37BD4680BC704780B586B0AC
:101E580000AF78607B68002B01D101236CE27B68BE
:101E68001B6803F00103002B00F08780924B5B682E
:101E780003F00C03042B0CD08F4B5B6803F00C03AE
:101E8800082B12D18C4B5B6803F48033B3F5803F89
:101E98000BD1894B1B6803F40033002B6CD07B6893
:101EA8005B68002B68D1012346E27B685B68B3F569
:101EB800803F06D1804A804B1B6843F4803313600F
:101EC8002EE07B685B68002B0CD17B4A7A4B1B6841
:101ED80023F480331360784A774B1B6823F48023FC
:101EE80013601DE07B685B68B3F5A02F0CD1724AC4
:101EF800714B1B6843F4802313606F4A6E4B1B6859
:101F080043F4803313600BE06B4A6B4B1B6823F47C
:101F180080331360684A684B1B6823F4802313607E
:101F28007B685B68002B13D0FFF742F8386108E044
:101F3800FFF73EF802463B69D31A642B01D9032305
:101F4800FAE15D4B1B6803F40033002BF0D014E07A
:101F5800FFF72EF8386108E0FFF72AF802463B69D8
:101F6800D31A642B01D90323E6E1534B1B6803F40E
:101F78000033002BF0D100E000BF7B681B6803F042
:101F88000203002B63D04C4B5B6803F00C03002B5F
:101F98000BD0494B5B6803F00C03082B1CD1464B54
:101FA8005B6803F48033002B16D1434B1B6803F0A6
:101FB8000203002B05D07B681B69012B01D001238C
:101FC800BAE13D493C4B1B6823F0F8027B685B692A
:101FD800DB0013430B603AE07B681B69002B20D0C1
:101FE800364B01221A60FEF7E3FF386108E0FEF77E
:101FF800DFFF02463B69D31A022B01D903239BE179
:102008002D4B1B6803F00203002BF0D02A492A4B02
:102018001B6823F0F8027B685B69DB0013430B60E5
:1020280015E0264B00221A60FEF7C2FF386108E06F
:10203800FEF7BEFF02463B69D31A022B01D90323E0
:102048007AE11D4B1B6803F00203002BF0D17B687B
:102058001B6803F00803002B3AD07B689B69002BB0
:1020680019D0174B01221A60FEF7A2FF386108E069
:10207800FEF79EFF02463B69D31A022B01D90323C0
:102088005AE10D4B5B6A03F00203002BF0D00120EC
:1020980000F0C6FA1CE00A4B00221A60FEF788FF1F
:1020A80038610FE0FEF784FF02463B69D31A022B22
:1020B80008D9032340E100BF00100240000042425B
:1020C800800442429E4B5B6A03F00203002BE9D175
:1020D8007B681B6803F00403002B00F0A680002334
:1020E800FB75974BDB6903F08053002B0DD1944AA5
:1020F800934BDB6943F08053D361914BDB6903F069
:102108008053BB60BB680123FB758E4B1B6803F4CF
:102118008073002B18D18B4A8A4B1B6843F4807359
:102128001360FEF745FF386108E0FEF741FF0246FD
:102138003B69D31A642B01D90323FDE0814B1B684B
:1021480003F48073002BF0D07B68DB68012B06D189
:102158007B4A7B4B1B6A43F0010313622DE07B68CB
:10216800DB68002B0CD1764A754B1B6A23F0010300
:102178001362734A724B1B6A23F0040313621CE058
:102188007B68DB68052B0CD16D4A6D4B1B6A43F0ED
:10219800040313626A4A6A4B1B6A43F00103136221
:1021A8000BE0674A664B1B6A23F001031362644A1B
:1021B800634B1B6A23F0040313627B68DB68002B04
:1021C80015D0FEF7F5FE38610AE0FEF7F1FE02468B
:1021D8003B69D31A41F28832934201D90323ABE019
:1021E800574B1B6A03F00203002BEED014E0FEF7F6
:1021F800DFFE38610AE0FEF7DBFE02463B69D31AD0
:1022080041F28832934201D9032395E04C4B1B6A73
:1022180003F00203002BEED1FB7D012B05D1484AC8
:10222800474BDB6923F08053D3617B68DB69002B64
:1022380000F08180424B5B6803F00C03082B61D0EF
:102248007B68DB69022B46D13F4B00221A60FEF700
:10225800AFFE386108E0FEF7ABFE02463B69D31AD1
:10226800022B01D9032367E0354B1B6803F0007389
:10227800002BF0D17B681B6AB3F5803F08D1304949
:102288002F4B5B6823F400327B689B6813434B60D9
:102298002B482B4B5B6823F474127B68196A7B68A4
:1022A8005B6A0B4313434360274B01221A60FEF716
:1022B8007FFE386108E0FEF77BFE02463B69D31AD1
:1022C800022B01D9032337E01D4B1B6803F0007371
:1022D800002BF0D02FE01C4B00221A60FEF768FE9E
:1022E800386108E0FEF764FE02463B69D31A022B08
:1022F80001D9032320E0124B1B6803F00073002B65
:10230800F0D118E07B68DB69012B01D1012313E0D0
:102318000B4B5B68FB60FB6803F480327B681B6ACD
:102328009A4206D1FB6803F470127B685B6A9A4292
:1023380001D0012300E0002318461837BD4680BDB0
:1023480000100240007000406000424280B584B036
:1023580000AF786039607B68002B01D10123D0E0A1
:102368006A4B1B6803F007023B689A4210D2674920
:10237800664B1B6823F007023B6813430B60634BF3
:102388001B6803F007023B689A4201D00123B8E0BA
:102398007B681B6803F00203002B20D07B681B6856
:1023A80003F00403002B05D0594A594B5B6843F4EA
:1023B800E06353607B681B6803F00803002B05D0BB
:1023C800534A534B5B6843F4605353605049504B36
:1023D8005B6823F0F0027B689B6813434B607B6863
:1023E8001B6803F00103002B40D07B685B68012B5E
:1023F80007D1474B1B6803F40033002B15D1012389
:102408007FE07B685B68022B07D1414B1B6803F0B8
:102418000073002B09D1012373E03D4B1B6803F0C7
:102428000203002B01D101236BE03949384B5B686B
:1024380023F003027B685B6813434B60FEF7B8FD2B
:10244800F8600AE0FEF7B4FD0246FB68D31A41F2D1
:102458008832934201D9032353E02D4B5B6803F084
:102468000C027B685B689B009A42EBD1274B1B6888
:1024780003F007023B689A4210D92449234B1B6892
:1024880023F007023B6813430B60204B1B6803F0E3
:1024980007023B689A4201D0012332E07B681B683F
:1024A80003F00403002B08D01949194B5B6823F487
:1024B800E0627B68DB6813434B607B681B6803F052
:1024C8000803002B09D01249114B5B6823F46052B2
:1024D8007B681B69DB0013434B6000F021F8014661
:1024E8000B4B5B681B0903F00F030A4AD35C21FA04
:1024F80003F3094A1360094B1B681846FEF716FDDB
:10250800002318461037BD4680BD00BF002002409A
:1025180000100240E85E00080800002000000020CB
:1025280090B48AB000AF2A4B3C1D0FCB84E80F0053
:10253800284B1B883B800023FB610023BB610023E1
:102548007B6200237B6100233B62234B5B68FB615A
:10255800FB6903F00C03042B02D0082B03D02DE0F9
:102568001E4B3B622DE0FB699B0C03F00F0307F148
:102578002802134413F8243C7B61FB6903F480337D
:10258800002B13D0144B5B685B0C03F0010307F1BD
:102598002802134413F8283CBB617B690F4A02FBED
:1025A80003F2BB69B2FBF3F37B6204E07B690C4A7C
:1025B80002FB03F37B627B6A3B6202E0074B3B62F0
:1025C80000BF3B6A18462837BD4690BC704700BF1D
:1025D800B85E0008C85E00080010024000127A00C9
:1025E80000093D0080B400AF024B1B681846BD4689
:1025F80080BC70470800002080B500AFFFF7F2FFED
:102608000146054B5B68DB0A03F00703034AD35C0A
:1026180021FA03F3184680BD00100240F85E000856
:1026280080B485B000AF78600A4B1B680A4AA2FBE9
:1026380003235B0A7A6802FB03F3FB6000BFFB68B5
:102648005A1EFA60002BF9D100BF1437BD4680BC72
:10265800704700BF08000020D34D621080B586B0D7
:1026680000AF786000233B610023FB607B681B6838
:1026780003F00103002B7DD00023FB754F4BDB6972
:1026880003F08053002B0DD14C4A4C4BDB6943F0CF
:102698008053D361494BDB6903F08053BB60BB684F
:1026A8000123FB75464B1B6803F48073002B18D17C
:1026B800434A434B1B6843F480731360FEF778FC6E
:1026C800386108E0FEF774FC02463B69D31A642BB4
:1026D80001D903236DE03A4B1B6803F48073002B88
:1026E800F0D0364B1B6A03F44073FB60FB68002B89
:1026F8002ED07B685B6803F44072FB689A4227D04F
:102708002E4B1B6A23F44073FB602E4B01221A6088
:102718002C4B00221A60294AFB681362FB6803F0FD
:102728000103002B14D0FEF743FC38610AE0FEF7E2
:102738003FFC02463B69D31A41F28832934201D9E1
:10274800032336E01D4B1B6A03F00203002BEED077
:102758001A491A4B1B6A23F440727B685B6813435F
:102768000B62FB7D012B05D1144A144BDB6923F066
:102778008053D3617B681B6803F00203002B08D0E9
:102788000E490E4B5B6823F440427B689B681343F9
:102798004B607B681B6803F01003002B08D00749C7
:1027A800064B5B6823F480027B685B6913434B60CC
:1027B800002318461837BD4680BD00BF00100240F0
:1027C800007000404004424290B58DB000AF786080
:1027D8006B4B07F10C040FCB84E80F00694B1B8887
:1027E8003B8100237B620023FB6200233B620023C2
:1027F800FB610023BB627B68013B0F2B00F2B680B4
:1028080001A252F823F000BFF32800085929000854
:1028180075290008E32800087529000875290008AB
:1028280075290008EB280008752900087529000893
:1028380075290008752900087529000875290008F8
:1028480075290008512800084F4B5B68FB614E4B07
:102858001B6803F08073002B00F08A80FB699B0CD7
:1028680003F00F0307F13002134413F8243C3B62D2
:10287800FB6903F48033002B18D0434B5B685B0C77
:1028880003F0010307F13002134413F8283C7B627C
:10289800FB6903F48033002B0DD03C4A7B6AB2FB02
:1028A800F3F33A6A02FB03F3FB6204E03B6A384A3B
:1028B80002FB03F3FB62344B5B6803F48003B3F55C
:1028C800800F02D1FB6ABB6252E0FB6A5B00314AAF
:1028D800A2FB03235B08BB624AE0FFF721FEB86254
:1028E80049E0FFF71DFEB86245E0274B1B6AFB6114
:1028F800FB6903F44073B3F5807F08D1FB6903F0EB
:102908000203002B03D04FF40043BB621FE0FB69B6
:1029180003F44073B3F5007F09D11B4B5B6A03F0E6
:102928000203002B03D049F64043BB620FE0FB696A
:1029380003F44073B3F5407F1CD1134B1B6803F4B9
:102948000033002B16D04FF22443BB6212E011E093
:10295800FFF752FE02460C4B5B689B0B03F0030328
:1029680001335B00B2FBF3F3BB6204E000BF02E09B
:1029780000BF00E000BFBB6A18463437BD4690BDB3
:10298800CC5E0008DC5E00080010024000127A00ED
:1029980000093D00ABAAAAAA80B582B000AF0346E1
:1029A800FB7100224FF480710548FFF737FAFB7975
:1029B800184600F06BF800BF0837BD4680BD00BF61
:1029C8000010014080B582B000AF0346FB710122C0
:1029D8004FF480710548FFF721FAFB79184600F09B
:1029E80055F800BF0837BD4680BD00BF0010014044
:1029F80080B582B000AF0346FB71FB7903F0010399
:102A0800002B14BF01230023DBB21A4610211E48F5
:102A1800FFF704FAFB7903F00203002B14BF01232C
:102A28000023DBB21A4620211748FFF7F7F9FB7994
:102A380003F00403002B14BF01230023DBB21A4662
:102A480040211148FFF7EAF9FB7903F00803002B4E
:102A580014BF01230023DBB21A4680210A48FFF77E
:102A6800DDF901224FF400710748FFF7D7F901207B
:102A7800FEF7A8FA00224FF400710348FFF7CEF9D9
:102A880000BF0837BD4680BD0010014080B582B048
:102A980000AF0346FB71FB791B09DBB21846FFF751
:102AA800A7FFFB791846FFF7A3FF00BF0837BD460D
:102AB80080BD80B582B000AF786007E07B681B7886
:102AC8001846FFF77FFF7B6801337B607B681B78C4
:102AD800002BF3D100BF0837BD4680BD80B500AFDD
:102AE8003320FFF759FF3220FFF756FF2820FFF762
:102AF80053FF0620FFF750FF0C20FFF74DFF012082
:102B0800FFF74AFF00BF80BD80B500AF0120FFF787
:102B180043FF0220FEF756FA00BF80BD80B584B09F
:102B280000AF03460A46FB711346BB71FB79002BC5
:102B380001D1002300E04023FB73FA7BBB791344E7
:102B4800FB73FB7B63F07F03DBB21846FFF724FFC0
:102B580000BF1037BD4680BD90B587B000AFFEF707
:102B6800CFF900F06DF800F0FBF800F0BBF84FF477
:102B78007A70FEF727FAFFF7B1FF00210020FFF770
:102B8800CDFF4FF47A70FEF71DFA2948FEF75EFE76
:102B98002748FEF723FB4FF47A712548FEF7CCFB54
:102BA8002348FEF7C3FC0346FB82FB8A1846FDF761
:102BB80091FC4FF000021F4BFDF71CFE03460C462C
:102BC8001846214618A3D3E90023FDF7E9FC03467C
:102BD8000C46184621464FF00002174BFDF7E0FC63
:102BE80003460C4618462146FDF7B2FF03463B61F3
:102BF8003B4600221A605A609A60DA603869FDF72D
:102C08007BFC03460C4638461A4623460B4900F01F
:102C180049FAFFF779FF3B461846FFF74AFF4FF49A
:102C28007A70FEF7CFF9B3E76666666666660A40AD
:102C3800D40600200000B04000005940E05E0008C3
:102C480080B596B000AF07F130032822002118465E
:102C580000F020FA07F11C0300221A605A609A60FB
:102C6800DA601A613B1D00221A605A609A60DA60C5
:102C78001A615A6102233B6301233B6410237B647E
:102C88000023FB6407F130031846FFF7DFF803461B
:102C9800002B01D000F0B0F80F23FB6100233B624A
:102CA80000237B620023BB620023FB6207F11C0345
:102CB80000211846FFF74AFB0346002B01D000F01D
:102CC8009BF802237B600023FB603B1D1846FFF73F
:102CD800C5FC0346002B01D000F08EF800BF583722
:102CE800BD4680BD80B584B000AF3B1D00221A6090
:102CF8005A609A60184B194A1A60174B00229A605A
:102D0800154B00221A73144B00221A75124B4FF4FC
:102D18006022DA61104B00225A600F4B01221A61BF
:102D28000D48FEF771F90346002B01D000F064F856
:102D380003237B600123BB600723FB603B1D19460F
:102D48000548FEF7FFFB0346002B01D000F054F8BE
:102D580000BF1037BD4680BDD406002000240140C6
:102D680080B588B000AF07F1100300221A605A60DE
:102D78009A60DA601E4A1E4B9B6943F01003936108
:102D88001B4B9B6903F01003FB60FB68184A184B48
:102D98009B6943F020039361154B9B6903F0200363
:102DA800BB60BB68124A124B9B6943F004039361F2
:102DB8000F4B9B6903F004037B607B6800224FF490
:102DC8007C710C48FFF72AF84FF47C733B610123B0
:102DD8007B610023BB610223FB6107F110031946E5
:102DE8000448FEF7B1FE00BF2037BD4680BD00BFD6
:102DF800001002400010014080B400AF00BFBD4683
:102E080080BC704780B485B000AF154A144B9B69ED
:102E180043F001039361124B9B6903F00103BB600C
:102E2800BB680F4A0E4BDB6943F08053D3610C4BF0
:102E3800DB6903F080537B607B680A4B5B68FB604F
:102E4800FB6823F0E063FB60FB6843F00073FB6002
:102E5800044AFB68536000BF1437BD4680BC704706
:102E6800001002400000014080B588B000AF7860D3
:102E780007F1100300221A605A609A60DA607B68D2
:102E88001B68144A934221D1134A134B9B6943F49C
:102E980000739361104B9B6903F40073FB60FB683C
:102EA8000D4A0D4B9B6943F0040393610A4B9B69E0
:102EB80003F00403BB60BB6808233B6103237B6109
:102EC80007F1100319460548FEF73EFE00BF2037FC
:102ED800BD4680BD002401400010024000080140AA
:102EE80080B400AF00BFBD4680BC704780B400AF5F
:102EF800FEE780B400AFFEE780B400AFFEE780B421
:102F080000AFFEE780B400AF00BFBD4680BC70478D
:102F180080B400AF00BFBD4680BC704780B400AF2E
:102F280000BFBD4680BC704780B500AFFEF72EF8E5
:102F380000BF80BD80B584B000AF7860114B1B68BE
:102F4800002B02D10F4B104A1A600E4B1B68FB6016
:102F58000C4B1A687B6813446A46934207D900F001
:102F68006FF802460C2313604FF0FF3306E0054B61
:102F78001A687B681344034A1360FB6818461037C5
:102F8800BD4680BD980600201407002080B400AF1D
:102F9800154A154B1B6843F0010313601249124B85
:102FA8005A68124B13404B600F4A0F4B1B6823F0B3
:102FB800847323F4803313600B4A0B4B1B6823F490
:102FC80080231360084A084B5B6823F4FE035360B0
:102FD800054B4FF41F029A60054B4FF000629A6050
:102FE80000BFBD4680BC7047001002400000FFF8DB
:102FF80000ED00E0002103E00B4B5B584350043127
:103008000A480B4B42189A42F6D30A4A02E00023B8
:1030180042F8043B084B9A42F9D3FFF7B7FF00F098
:1030280015F8FFF799FD704780610008000000203F
:103038007C0600207C06002014070020FEE7000024
:10304800014B1868704700BF0C00002070B50025C0
:103058000C4E0D4CA41BA410A54209D102F01AFF76
:1030680000250A4E0A4CA41BA410A54205D170BD28
:1030780056F8253098470135EEE756F82530984739
:103088000135F2E778610008786100087861000886
:103098007C61000803460244934200D1704703F85C
:1030A800011BF9E70EB44FF4027100B59CB0ADF8FE
:1030B80014106FF00041049107914FF6FF711DAB9A
:1030C80002900690084853F8042BADF816100068D3
:1030D80002A9019300F00AF80022029B1A701CB0A2
:1030E8005DF804EB03B070470C0000202DE9F04FA9
:1030F800BFB0894615461F46824601F029FE03687F
:1031080018461193FDF78CF8B9F80C300A901B0695
:1031180018D5D9F81030ABB94021504601F02EFE31
:10312800C9F80000C9F8100048B90C23CAF80030E3
:103138004FF0FF330B930B983FB0BDE8F08F40235F
:10314800C9F8143000232EAC2194239322930995B7
:1031580007930D930E93159314930B931293139354
:10316800099D2B4613F8012B12B1252A40F08380C4
:10317800099BEE1A0DD084E84800239B334423931F
:10318800229B0133072B229377DC08340B9B3344B3
:103198000B932B78002B00F025870023691C1A4617
:1031A8004FF0FF3B1D460A208DF867300C934E1CEC
:1031B80009780996069106992039582900F214844D
:1031C800DFE811F0A50012041204AA001204120488
:1031D8001204120412041204AD0065001204B500B2
:1031E800B8001204D500D800D800D800D800D800FC
:1031F800D800D800D800D80012041204120412040F
:103208001204120412041204120412040C01220102
:10321800120422011204120412041204EB00120414
:1032280012043C0312041204120412041204A4032C
:103238001204120485001204120412041204120467
:1032480012041204120412041204FE006B0022017C
:1032580022012201EE006B0012041204F100120494
:103268001E033E037203F800120483031204A6032C
:1032780012041204BE031D4673E721AA49465046AC
:1032880002F090FA002840F08E862EAC7EE70123EB
:103298002B2209998BE70F46FBE70BB18DF86720C6
:1032A800AE0640F1A180073727F0070707F10803AA
:1032B8000893D7E90067002E77F1000305DA2D237C
:1032C800764267EB47078DF867300123C7E20BB1F9
:1032D8008DF86720A04B1593AB0640F1368307376E
:1032E80027F0070707F108030893D7E90067E807FD
:1032F8000BD556EA070308D030238DF868309DF8BF
:10330800183045F002058DF869300223A4E2002A3E
:10331800BFD101232022BCE745F00105B9E73E688B
:10332800391D002E0C96B6DA0F4676420C9645F0FB
:103338000405AEE709994E1C09782A29069110D090
:103348004FF0000B09960699303909293FF633AF3B
:1033580000FB0B1B09990E4616F8011B06910996EE
:10336800F1E73968099641EAE17B043791E745F0CE
:1033780080058EE700210C9106990C9E303900FBE0
:1033880006110C9109990E4616F8011B069106992B
:10339800099630390929EFD90DE745F0080578E78E
:1033A80045F0400575E7099909786C2905D109990F
:1033B8000131099145F020056BE745F0100568E7F4
:1033C80000263B1D08933B688DF867608DF89030A8
:1033D8004FF0010B37460DF190081CE10BB18DF849
:1033E800672045F010055BE715F0100F07F104039F
:1033F80003D03E680893F7175DE73E6815F0400F65
:10340800089318BF36B2F6E70BB18DF86720073777
:1034180027F0070707F1080308933B684FF0FF32CE
:103428000D937B680D9F0E930E9B384623F0004644
:1034380031464A4BFDF74EFB002840F0DC854FF043
:10344800FF32464B38463146FDF726FB002840F050
:10345800D285129A139B0D980E99FDF713FB10B1A4
:103468002D238DF867303E4B3E4A06994FF0030BEB
:103478004729CCBF90469846002625F08005374658
:10348800C9E0BBF1FF3F26D0069B23F02003472B62
:1034980004D1BBF1000F08BF4FF0010B45F4807356
:1034A80017930E9B1F1E0D9BA8BF10970F93BDBFB0
:1034B8003B4603F1004310930023B8BF2D23169316
:1034C800069B23F02007462F08D0452F42D10BF149
:1034D8000106022304E04FF0060BDFE75E460323F4
:1034E8001FAA04921CAA03921BAA02928DE8480004
:1034F8000F9A109B504600F057FE472F804602D186
:10350800E80740F1858508EB0603462F079311D19C
:1035180098F80030302B09D1129A139B0F98109904
:10352800FDF7A6FA10B9C6F101061B96079A1B9B70
:103538001A440792129A139B0F981099FDF798FA5C
:1035480090B930221F9B079999420FD9591C1F9196
:103558001A70F7E75E46BCE7105F0008FFFFEF7FD1
:10356800005F0008045F0008079B1F931F9B472FFD
:10357800A3EB0803079340F000811B9BD91C02DBD7
:103588009B4580F22681069B023B06931B9A9DF879
:103598001810531E002BA8BF2B221B93BCBFC2F1CF
:1035A80001032D22092B8DF874108DF8752040F336
:1035B80000810A260DF1830293FBF6F006FB103317
:1035C800092803F1300302F8013C02F1FF310346F8
:1035D80000F3E880303301F8013C023A0DF176033C
:1035E8000DF1830082421946C0F0DE80079A1DABB8
:1035F800CB1A012A149303EB020B02DC15F0010726
:1036080002D000270A9B9B44169B13B12D238DF8EB
:1036180067300026179D5E453346B8BF5B460F935B
:103628009DF8673013B10F9B01330F9315F0020318
:1036380016931EBF0F9B02330F9315F08403179345
:1036480018D10C9B0F9A9B1A002B109312DD109B1C
:10365800102BAB4B236000F3D981109B109A636049
:10366800239B13442393229B0133072B229300F3BC
:10367800E68108349DF8673073B10DF16703236064
:1036880001236360239B01332393229B0133072B80
:10369800229300F3DE810834169B6BB11AAB2360CA
:1036A80002236360239B02332393229B0133072B5E
:1036B800229300F3D8810834179B802B18D10C9BD8
:1036C8000F9A9B1A002B109312DD109B102B8D4B19
:1036D800236000F3D281109B109A6360239B1344EC
:1036E8002393229B0133072B229300F3DF810834B5
:1036F800A6EB0B06002E0FDD824B102E236000F385
:10370800DF81229B239801336660072B06442396AA
:10371800229300F3EC810834EB0500F1F281239B3E
:1037280084E800095B442393229B0133072B2293EF
:1037380040F3198421AA4946504602F033F800287C
:1037480040F031842EAC6B0700F110840B9B0C9A6F
:103758000F998A42ACBF9B185B180B93239B3BB114
:1037680021AA4946504602F01DF8002840F01B8463
:103778000023089F22932EACF2E4069B652B7FF76B
:1037880005AF069B662B24D11B9B002B19DDBBF1D3
:10379800000F01D1EA0702D50A9A13445B441B9F24
:1037A8009B4631E70A4607E712F8011B03F8011B9D
:1037B80018E7302213448DF876208DF877301EA94B
:1037C80014E7BBF1000F01D1EB0715D50A9B0133B4
:1037D800E4E71B9A079B9A4206DBEF070ED50A9B84
:1037E800134467220692DAE7079B0A99002A0B44DA
:1037F800F7DCC2F10102F3E70123D0E71346F0E753
:103808000BB18DF8672015F0200F07F1040308D0DD
:103818000B993A68CE1708463146C2E900011F469F
:103828009EE4EE0603D53A680B991160F7E768063F
:10383800F9D53A68BDF82C101180F0E745F010056D
:1038480015F0200322D0073727F0070707F10803F0
:103858000893D7E90067002300228DF86720BBF1A1
:10386800FF3F00F0DB8325F080020F9256EA070243
:1038780040F0D983BBF1000F00F0AA80012B76D06D
:10388800022B00F0918000260027D2E33A1D15F0A4
:103898001001089202D03E680027DDE715F04003CA
:1038A800F9D03E880027D6E73B1D089330237822BD
:1038B8008DF86830144B3E681593002745F00205D3
:1038C8008DF8692002230692C6E700263B1DBBF14E
:1038D800FF3F0893D7F800808DF867600AD05A46F2
:1038E8003146404601F056FC002800F08D80A0EBE0
:1038F800080BC4E54046FCF793FC8346BFE500BFD0
:10390800345F0008445F0008215F000845F0100597
:10391800A90609D5073727F0070707F10803089311
:10392800D7E90067012397E73B1D15F0100F0893AF
:1039380001D03E6802E06A06FBD53E880027F1E721
:103948000BB18DF86720A34BC5E43B1D15F0100F94
:10395800089301D03E6802E06E06FBD53E8800273A
:10396800C5E4434666E3002F08BF0A2E05D2303669
:103978000DF1F80808F8416D77E30DF1B808304605
:1039880039460A220023FDF733F9303208F8012DB1
:103998000023304639460A22FDF72AF906460F4623
:1039A80056EA0703EBD160E3002600270DF1B808BB
:1039B800159A06F00F03D35C3A0908F8013D33095C
:1039C80043EA07731E46174656EA0703F0D14CE34D
:1039D8003BB9EA0705D530230DF1F80808F8413D51
:1039E80043E30DF1B80840E30BB18DF86720069B5F
:1039F800002B00F0F78200269DF818308DF86760DC
:103A08008DF890300897E3E4064638E510236360A4
:103A1800239B10332393229B0133072B229304DC2F
:103A28000834109B103B109311E621AA49465046D2
:103A380001F0B8FE002840F0B6822EACF1E721AACA
:103A48004946504601F0AEFE002840F0AC822EAC4C
:103A580010E621AA4946504601F0A4FE002840F08D
:103A6800A2822EAC18E621AA4946504601F09AFED9
:103A7800002840F098822EAC1EE610236360239B3A
:103A880010332393229B0133072B229304DC083441
:103A9800109B103B109318E621AA4946504601F0A6
:103AA80081FE002840F07F822EACF1E721AA49462A
:103AB800504601F077FE002840F075822EAC17E6DC
:103AC80010236360239B10332393229B0133072B1E
:103AD800229302DC0834103E0EE621AA49465046DD
:103AE80001F060FE002840F05E822EACF3E721AAC8
:103AF8004946504601F056FE002840F054822EAC4C
:103B08000AE6069B652B40F3A981129A139B0D9830
:103B18000E99FCF7ADFF002862D02F4B23600123DC
:103B28006360239B01332393229B0133072B22934A
:103B380025DC08341B9B079A934202DBEE077FF5CE
:103B480002AE119B0A9A23600A9B6360239B13446D
:103B58002393229B0133072B22931ADC0834079BFB
:103B68005E1E002E7FF7EFAD4FF010081B4F102E92
:103B7800276018DC6660239B1E442396D4E521AA9F
:103B88004946504601F00EFE002840F00C822EAC4B
:103B9800D0E721AA4946504601F004FE002840F02B
:103BA80002822EACDBE7239BC4F8048010332393F6
:103BB800229B0133072B229302DC0834103ED6E700
:103BC80021AA4946504601F0EDFD002840F0EB815E
:103BD8002EACF3E7215F0008325F0008445F00085D
:103BE8001B9B002B7ADC9B4B236001236360239B88
:103BF80001332393229B0133072B229344DC08349F
:103C08001B9B23B9079B13B9E8077FF59CAD119B54
:103C18000A9A23600A9B6360239B13442393229B85
:103C28000133072B229339DC04F108031B9E002E75
:103C380019DA1024884F7642102E1F6038DC239A38
:103C48005E601644229A23960132072A03F108037C
:103C5800229208DD21AA4946504601F0A3FD00281A
:103C680040F0A1812EAB079A07995A60239AC3F8AE
:103C780000800A442392229A0132072A22923FF7AF
:103C880059AD03F108045EE521AA4946504601F002
:103C980089FD002840F087812EACB1E721AA49466A
:103CA800504601F07FFD002840F07D812EABBDE736
:103CB800239A5C6010322392229A0132072A2292B8
:103CC80002DC0833103EB7E721AA4946504601F006
:103CD80069FD002840F067812EABF3E7079BBB42E4
:103CE800A8BF3B46002B1E460BDD6360239BC4F830
:103CF800008033442393229B0133072B22935FDCFC
:103D08000834002EB4BF3E46BE1B002E0FDDDFF880
:103D180048B1102EC4F800B05CDC239B66601E44DA
:103D2800229B23960133072B22936ADC08341B9BC2
:103D3800079A934201DBE9070DD5119B0A9A236084
:103D48000A9B6360239B13442393229B0133072B15
:103D5800229360DC0834079B079ADE1B1B9BD31A4F
:103D68009E42A8BF1E46002E0BDD239B47443344CA
:103D78002393229B27600133072B6660229354DC30
:103D880008341B9B079A002EA2EB0303B4BF1E4600
:103D98009E1B002E7FF7D7AC4FF010082E4F102E29
:103DA80027607FF7E7AE239BC4F804801033239382
:103DB800229B0133072B229341DC0834103EEEE7A7
:103DC80021AA4946504601F0EDFC002840F0EB805E
:103DD8002EAC96E710236360239B10332393229B1A
:103DE8000133072B229302DC0834103E91E721AA05
:103DF8004946504601F0D6FC002840F0D4802EAC4D
:103E0800F3E721AA4946504601F0CCFC002840F0CF
:103E1800CA802EAC8BE721AA4946504601F0C2FC65
:103E2800002840F0C0802EAC95E721AA49465046AC
:103E380001F0B8FC002840F0B6802EACA1E721AA1A
:103E48004946504601F0AEFC002840F0AC802EAC4C
:103E5800B4E700BF325F0008445F0008079B012BEE
:103E680001DCEA0776D501236360239BC4F8008050
:103E780001332393229B0133072B229336DC08342A
:103E8800119B0A9A23600A9B6360239B1344239324
:103E9800229B0133072B229331DC0834139B129A9F
:103EA8000D980E99FCF7E4FD079B5E1E00282FD1A4
:103EB80008F1010384E84800239B079A013B134457
:103EC8002393229B0133072B22934ADD21AA4946DB
:103ED800504601F067FC002865D12EAC1DAB23606D
:103EE800149B149A6360239B13441CE421AA49463B
:103EF800504601F057FC002855D12EACC0E721AA46
:103F08004946504601F04EFC00284CD12EACC5E77E
:103F1800002EE3DD4FF01008584F102E276004DC08
:103F2800239B66601E442396CBE7239BC4F804803A
:103F380010332393229B0133072B229302DC08348E
:103F4800103EEAE721AA4946504601F02BFC50BB37
:103F58002EACF5E701236360239BC4F8008001338E
:103F6800AEE70834BAE70834FFF7EDBB0C9B0F9AAD
:103F78009D1A002D7FF7EAAB1026414B102D2360C8
:103F88001BDC239B65601D44229B23950133072B73
:103F980022937FF7DBAB21AA4946504601F002FC89
:103FA80000283FF4D3ABB9F80C3013F0400F0B9B4B
:103FB80018BF4FF0FF33FFF7BDB8239B666010337F
:103FC8002393229B0133072B229302DC0834103DF4
:103FD800D3E721AA4946504601F0E4FB0028E2D184
:103FE8002EACF4E7239B002BDDD021AA494650468E
:103FF80001F0D8FBD7E70D9A0E9B0D980E99FCF7A8
:1040080069FD00283FF43DAA1E4B1F4AFFF72DBA51
:104018001F9BA3EB08030793FFF7AFBA56EA070203
:104028000F953FF42BAC012B3FF49DAC022B3FF4D2
:10403800BDAC2EABF10841EA4771F80806F007025B
:1040480007460E46303256EA070103F1FF3803F8F7
:10405800012C7FF486AC0F99C90706D5302A04D005
:10406800302208F8012CA3F102082EAB5E460F9D02
:10407800A3EB080B0027FFF7CEBA00BF445F000888
:10408800345F0008085F00080C5F00082DE9F74F4F
:1040980003690C6980469C4200F38280013C01F16F
:1040A800140700F1140657F8245056F82400013577
:1040B800B0FBF5F54FEA840E06EB0E0307EB0E098D
:1040C80001938DB34FF0000A3846B446D34650F8F2
:1040D800042B93B205FB03A3120C4FEA134A05FB0A
:1040E80002A29BB2ABEB0303BCF800B04FEA124A42
:1040F8005B441FFA82FBDCF800208145CBEB1242BF
:1041080002EB23429BB243EA02434FEA224B4CF8AC
:10411800043BDCD256F80E3033B9019B043B9E4277
:104128001A4631D3C8F81040404601F062FA002818
:1041380026DB30464FF0000E013557F8041BD0F847
:1041480000C08BB2AEEB03031FFA8CF213440A0CC7
:10415800C2EB1C4202EB23429BB243EA0243B9453D
:104168004FEA224E40F8043BE7D256F8242006EBEB
:1041780084032AB9043B9E421A460BD3C8F8104060
:10418800284603B0BDE8F08F1268043B002AC9D165
:10419800013CC4E71268043B002AEFD1013CEAE77E
:1041A8000020EEE7000000002DE9F04F466A95B0C8
:1041B8000446219DCDE902233EB9102000F0D6FD2A
:1041C8006062466086600660C660636A196851B1BD
:1041D8005A68012393404A608B60204601F034F806
:1041E8000022636A1A60039B002BB7BF01230023D8
:1041F8002B60039BAEBF2B6023F000430393DDF8D5
:104208000C90AB4B33EA09031BD142F20F73209A8F
:104218001360029B23B9C9F31300002800F08385BB
:10422800229B53B9A34B21E0A34B06930833229A50
:104238001360069815B0BDE8F08F9E4B06930333C4
:10424800F5E7DDE902670022002330463946FCF72E
:104258000FFC804660B10123209A1360229B002B3B
:1042680000F05E85954B229A1360013B0693E0E7C8
:1042780012AB019313AB009332463B46204601F044
:1042880031FAC9F30A558246002D7DD03046C7F36E
:10429800130343F07F5141F44011A5F2FF35CDF8E7
:1042A80040800022864BFBF7C7FF7BA3D3E900239E
:1042B800FCF776F97AA3D3E90023FBF7BFFF06469C
:1042C80028460F46FCF706F977A3D3E90023FCF745
:1042D80067F902460B4630463946FBF7AFFF0646FC
:1042E8000F46FCF70DFC0022834600233046394672
:1042F800FCF7C8FB58B15846FCF7ECF802460B46E9
:1043080030463946FCF7B4FB08B90BF1FF3BBBF16B
:10431800160F58D8DDE902236A4901EBCB01D1E930
:104328000001FCF7CDFB00284FD000230BF1FF3B29
:104338000D93129B5D1B6B1E079343BF0023C5F1B2
:10434800010807934FF00008BBF1000F3FDB079B04
:10435800CDF830B05B440793002308931E9B092BCC
:1043680000F2B480052BC4BF043B1E931E9BC8BF3C
:104378000026A3F10203D8BF0126032B00F2B28066
:10438800DFE803F084862D78139B129D1D4405F207
:104398003243202B11DD029A05F21240C3F140038B
:1043A80022FA00F009FA03F31843FCF783F8012313
:1043B800A1F1F871013D109373E7C3F12000029B4E
:1043C80003FA00F0F1E70123B2E70D90B1E7CBF172
:1043D800000308930023A8EB0B080C93BEE7012306
:1043E80009931F9B002B40F3808099460493002279
:1043F8000421656A6A6001F114029A427AD96968EF
:10440800204600F0EDFE636A28601B68B9F10E0FC4
:10441800069300F2F080002E00F0ED80DDE9022323
:10442800BBF1000FCDE90E2379DD264A0BF00F030F
:104438004FEA2B1602EBC303F006D3E90023CDE9BC
:104448000A235CD5DDE90E011F4B0325D3E90823B8
:10445800FCF7D0F9CDE9020106F00F061A4F002E3D
:104468004FD1DDE90A23DDE90201FCF7C3F9CDE903
:1044780002016EE0012309931F9B5B4403F10109CC
:1044880004934B46012BB8BF0123B0E70023A7E7ED
:104498000023F0E7AFF3008061436F63A787D23F43
:1044A800B3C8608B288AC63FFB799F501344D33F1B
:1044B8000000F07F5D5F0008545F0008335F00086C
:1044C8000000F83F905F0008685F0008012600239D
:1044D80009961E934FF0FF33002204939946122346
:1044E8001F9284E701230993F4E701230493994673
:1044F8001A46F5E76A68490001326A607BE70225D7
:10450800ACE7F10708D5DDE90A01D7E90023FCF794
:1045180047F8CDE90A010135761008379FE700F022
:10452800A580DDE90E01CBF10006A24B06F00F02D3
:1045380003EBC203D3E90023FCF732F8022500237A
:10454800CDE902019C4F3611002E40F08480002BEB
:104558008DD10D9B002B00F08B80DDE90223CDE986
:104568000A23DDE90A010022944BFCF78BFA0028A4
:104578007ED0B9F1000F7BD0049B002B37DDDDE93D
:104588000A0100228E4BFCF70BF8CDE90201049ECC
:104598000BF1FF3701352846FBF79CFFDDE90223C5
:1045A800FBF7FEFF874B0022FBF748FECDE90A0127
:1045B8000B9BA3F150750B95002E5CD1DDE9020130
:1045C8000022814BFBF738FE0A9A2B46CDE90201FF
:1045D800FCF776FA002840F0F782DDE902010A9A32
:1045E80005F10043FCF74EFA002840F0EB82DDE9C4
:1045F8000E23CDE90223139B002BC0F25081BBF19F
:104608000E0F00F34C816B4B03EBCB03D3E9002374
:10461800CDE904231F9B002B80F2DA80B9F1000F4B
:1046280000F3D68040F0CD82DDE904010022664B1C
:10463800FBF7B6FFDDE90223FCF738FA4E464F4692
:10464800002840F0A482069B069A5D1C31230BF1DA
:10465800010B13709FE2F20705D5D7E90023FBF79A
:104668009FFF01230135761008376DE7022570E7B3
:104678005F464E468FE7069A4E4B32441192099A8E
:10468800711E002A48D003EBC103D3E900230020A0
:104698004E49FCF7AFF8DDE90A23FBF7CDFDCDE97C
:1046A8000A01069DDDE90201FCF72AFA0646FBF736
:1046B80011FF02460B46DDE90201FBF7BDFDDDE90E
:1046C8000A23303605F8016BCDE90201FCF7DAF967
:1046D800002864D1DDE9022300203849FBF7ACFD4E
:1046E800DDE90A23FCF7CEF9002840F0B980119BD8
:1046F8009D423FF47CAFDDE90A010022304BFBF715
:104708004FFF0022CDE90A01DDE902012C4BFBF73E
:1047180047FFCDE90201C5E703EBC101D1E900017B
:10472800DDE90A23FBF73CFFCDE90A01069DDDE937
:104738000201FCF7E5F90646FBF7CCFE02460B46FC
:10474800DDE90201FBF778FD3036119B05F8016BB6
:10475800AB42CDE902014FF0000224D11B4BDDE949
:104768000A01FBF76BFD02460B46DDE90201FCF787
:10477800A7F9002874D1DDE90A2300201349FBF7C3
:104788005BFD02460B46DDE90201FCF77BF90028D8
:104798003FF42DAF15F8013C6A1E302B01D0BB4603
:1047A8004DE01546F6E7064BFBF7FAFECDE90201A8
:1047B800BDE700BF905F0008685F00080000F03F99
:1047C8000000244000001C40000014400000E03FAE
:1047D800069DDDE90267DDE9042330463946FCF72A
:1047E80009F8FCF78DF98046FBF774FEDDE9042330
:1047F800FBF7D6FE02460B4630463946FBF71CFD52
:1048080008F1300605F8016B069E0246AE1BB1455D
:104818000B4637D1FBF712FD06460F4602460B46FC
:10482800DDE90401FCF72EF9C8B9DDE904013246D7
:104838003B46FCF71DF910B118F0010F0FD1514696
:10484800204600F001FD0023209A2B700BF1010394
:104858001360229B002B3FF4ECAC1D60E9E45F463B
:1048680015F8012C6B1E392A06D1069A9A4207D1EF
:1048780030231370134601371A7801321A708EE705
:104888001D46EDE70022B54BFBF78AFE0022002308
:1048980006460F46FCF7ECF800289CD0CFE7099AAB
:1048A800002A00F029811E9A012A00F30E81109A2D
:1048B800002A00F0068103F233434546089E079A12
:1048C80001211A4420469844079200F05DFD0746EE
:1048D800002D0BDD079B002B08DDAB42A8BF2B4644
:1048E800079AA8EB0308ED1AD31A0793089BFBB1A4
:1048F800099B002B00F00481002E11DD3946324659
:10490800204600F0D7FD524601460746204600F0F3
:1049180044FD51460A90204600F096FC0A9B9A46B0
:10492800089B9A1B04D05146204600F0C3FD8246DE
:104938000121204600F028FD0C9B0646002B40F381
:10494800E1801A460146204600F0B4FD1E9B06464B
:10495800012B40F3DA8000230893336906EB8303C5
:10496800186900F0C3FCC0F12000079B184410F040
:104978001F0000F0F080C0F12003042B40F3E28018
:10498800079BC0F11C008044054403440793B8F119
:10499800000F05DD51464246204600F0D9FD82460B
:1049A800079B002B05DD31461A46204600F0D0FD56
:1049B80006460D9B002B00F0D3803146504600F090
:1049C80018FE002880F2CC80002351460A22204697
:1049D80000F051FC099B0BF1FF3B8246002B00F0D5
:1049E800A981002339460A22204600F044FC049B92
:1049F8000746002B03DC1E9B022B00F3B980002D19
:104A080005DD39462A46204600F0A2FD0746089BE8
:104A1800002B00F010817968204600F0E1FB054684
:104A28003A6907F10C01023292000C3000F0C0FB29
:104A380001222946204600F08BFD07970746029B76
:104A4800DDF8188003F00103089331465046FFF75C
:104A58001DFB0799054600F13009504600F0C9FDD5
:104A68003A4602903146204600F0DDFDC368024612
:104A7800002B40F0E28001460990504600F0B9FD55
:104A88000346099A11462046099300F0DDFB099B6D
:104A9800002B40F0D4801E9A002A40F0D080089A5B
:104AA800002A40F0CC80B9F1390F00F0E880029B71
:104AB800002B01DD05F1310908F1010588F80090A6
:104AC8006BE0129BC3F13603F7E6089B09F1FF364A
:104AD800B342B7BF089B9E1BF21A0C9BBFBF089638
:104AE8009B180C930026B9F1000FB9BFA8EB090574
:104AF800002345464B46E2E6089E4546099FE7E601
:104B0800089A10E71E9B012B18DC029BB3B9039B84
:104B1800C3F31303A3B9039B23F000431B0D1B0529
:104B28002BB1079B08F10108013307930123089370
:104B38000C9B002B7FF411AF012016E70023F6E74A
:104B4800029BF4E73FF423AF079A1C331A449844B6
:104B58001D4413461AE70346F6E700BF0000244049
:104B6800B9F1000F33DC1E9B022B30DDCDF810901D
:104B7800049B63B931460522204600F07CFB0146C0
:104B88000646504600F035FD00283FF75CAD1F9BF8
:104B9800069D6FEA030B002307933146204600F079
:104BA80053FB002F3FF44BAE079B2BB1BB4203D006
:104BB8001946204600F048FB3946204600F044FBE1
:104BC8003DE600263746E2E7BB4637463BE5099B0C
:104BD800CDF81090002B7FF412AF069D3146504659
:104BE800FFF754FA069B00F1300905F8019B049A77
:104BF800EB1A9A4200F38180069B012AACBF9B18EE
:104C0800013398460023079351460122204600F0BD
:104C18009FFC3146824600F0ECFC002834DC02D1CF
:104C280019F0010F30D1454615F8013C6A1E302BAA
:104C3800B3D11546F8E73846FFE6012322E7029A82
:104C4800002A04DB28D11E9A32BB089A22BB002B0B
:104C58007FF732AF51460122204600F079FC3146F9
:104C6800824600F0C6FC002805DC7FF425AF19F069
:104C7800010F3FF421AFB9F1390F7FF41BAF39238E
:104C880008F1010808F8013C454615F8013C6A1E80
:104C9800392B3AD001333FE0002B08F1010505DD3F
:104CA800B9F1390FEBD009F1010907E7069B049A1E
:104CB800EB1A9342A84605F8019CA5D0514600235B
:104CC8000A22204600F0D7FA079B8246BB424FF0E3
:104CD8000A024FF000030799204604D100F0CBFAEE
:104CE80007900746B1E600F0C6FA002307900A22AB
:104CF8003946204600F0BFFAF3E7514600230A225E
:104D0800204600F0B8FA824668E7069B934205D130
:104D18003123069A0BF1010B13703EE71546B4E7F1
:104D2800094BFFF7A3BA229B002B7FF47DAA074B00
:104D3800FFF79CBA049B002B3FF74FAF1E9B022B3B
:104D48007FF74BAF14E700BF325F0008545F0008DD
:104D5800044B1B68186A044B002808BF1846F0303B
:104D6800704700BF0C00002010050020024B0146D0
:104D7800186800F003B800BF0C0000202DE9F74FB9
:104D880001F10B04162C814607D934F0070405D528
:104D98000C23C9F80030002631E110248C42F7D3E7
:104DA800484600F011FAB4F5FC7F9B4D36D204F169
:104DB80008022A445668A2F108018E424FEAD40339
:104DC80002D1D668B24210D07368F268B16823F095
:104DD8000303CA60334491605A6842F001025A6082
:104DE800484600F0F7F9083609E102338B4A2E6984
:104DF800114696426DD0706820F00300071B0F2FF4
:104E080047DD331944F0010474606B612B61DA608B
:104E18009A6047F001025A603750E1E7630A2AD0E6
:104E2800042B12D8A30938335A1C05EBC202566862
:104E3800A2F10800864206D0726822F00302111B14
:104E48000F291CDD013B0133D0E7142B01D85B335C
:104E5800EAE7542B02D8230B6E33E5E7B3F5AA7FB4
:104E680002D8E30B7733DFE740F25452934204D879
:104E7800A30C7C33D8E73F23D6E77E23D4E7002969
:104E8800F16804DBB368D9608B60B318A4E70E46F9
:104E9800D0E7002F6A612A6105DB3044436843F09C
:104EA800010343609CE7B0F5007F44D20122C008AB
:104EB800871002FA07F76A6801303A436A6055F8C2
:104EC800307005EBC002083AF260B76045F8306010
:104ED800FE6001209A1000FA02F26868824200F22D
:104EE8009F80024206D123F003035200024203F1DD
:104EF8000403FAD005EBC30CE0469E46D8F80C60D4
:104F0800464553D10EF1010E1EF0030F08F10808B3
:104F1800F4D1980779D16B6823EA02036B6068685B
:104F2800520082427CD8002A7AD073460242E1D1EC
:104F380004335200FAE7420A042A15D882093832A3
:104F4800571C55F8377005EBC20EBE4526D1012017
:104F5800921000FA02F2686810436860C6F80CE024
:104F6800B760CEF80860B3E7142A01D85B32E7E7E8
:104F7800542A02D8020B6E32E2E7B2F5AA7F02D8B1
:104F8800C20B7732DCE740F25457BA429ABF820C20
:104F98007C327E22D4E7BF68BE4504D07A6822F00E
:104FA80003029042F7D3D7F80CE0D7E77068F768A8
:104FB80020F00300A0EB040ABAF10F0F10DDB2686D
:104FC800331944F001047460D760BA604AF00102F2
:104FD8006B612B61D96099605A6046F800A0FFE6C2
:104FE800BAF1000F0FDB3044436843F0010343601C
:104FF80056F8083F4846DF60BB6000F0EBF83046E3
:1050080003B0BDE8F08F3E467AE75CF80809013B3B
:1050180084453FF47EAF82E70001002008010020AC
:10502800D5F808B0DBF8046026F00306B44203D8CC
:10503800331B0F2B00F395804F4A0BEB06031768C1
:105048004E4A103711682744013105D04C490139BF
:105058000F44013149420F403946484601920093B6
:1050680000F090FBB0F1FF3F804655D0009B019ABD
:10507800834201D9AB454FD1424843450168824636
:1050880007EB010EC0F800E03F4913D10B4211D1E4
:10509800AB683E4446F001065E603C4ADAF80030F0
:1050A80011688B4288BF1360394A11688B4288BFE8
:1050B800136031E0106801301BBFA8EB0303734491
:1050C800C2F80080CAF8003018F007001CBFC0F111
:1050D800080080442A4B474418440F40C71B3946F0
:1050E800484600F04FFB431C04BF40460027DAF84F
:1050F8000030A0EB08003B44074447F00107AB45EC
:10510800C5F80880CAF80030C8F80470C5D00F2E5A
:1051180010D80123C8F80430AB685A6822F003029B
:105128009442A2EB040301D80F2B1ADC484600F086
:1051380051F830E60522DBF804300C3E26F007066D
:1051480003F001033343CBF804300F2E0BEB0603B7
:105158005A609A60A1D90BF10801484600F020FC7A
:105168009BE7AE6844F0010243F0010334447260E7
:10517800AC60636034E600BFCC0600200805002060
:10518800800000009C0600207F000000C40600206C
:10519800C806002010B5C9B202449042034601D1A6
:1051A800002010BD1C7801308C42F6D1184610BD85
:1051B80010B5431E0A44914200D110BD11F8014BAD
:1051C80003F8014FF7E70000014800F0A5BC00BF55
:1051D80008070020014800F0A0BC00BF0807002015
:1051E80070B5456A04460E463DB91020FFF7BEFD6E
:1051F8006062456085600560C560656AEB6883B17B
:10520800636ADB6853F82600B8B9012101FA06F58C
:105218006A1D9200204600F03FFB60B14660856041
:105228000EE021220421204600F036FB636AE86084
:10523800DB68002BE4D1002070BD026843F826200B
:1052480000230361C36070BD70B5446A06460D460D
:105258003CB91020FFF78AFD7062446084600460E6
:10526800C4603DB1736A6A68DB6853F8221029602C
:1052780043F8225070BD2DE9F0411F4606460C4602
:1052880000230D6901F1140EDEF80000013381B22C
:1052980002FB0171000C0F0C02FB007089B201EBDC
:1052A80000419D424FEA10474EF8041BECDCD7B191
:1052B800A3689D4212DB616830460131FFF790FF19
:1052C8008046226904F10C01023292000C30FFF78B
:1052D8006FFF21463046FFF7B7FF444604EB8503CE
:1052E80001355F6125612046BDE8F081020C12049A
:1052F8000346B2B90304102013F07F4F04BF1B020A
:10530800083013F0704F04BF1B01043013F0404FF6
:1053180004BF9B000230002B06DB5B0003D5013085
:1053280070470020E8E7202070470368014613F023
:1053380007020BD0DA0723D4980749BF5B089B08FC
:1053480001200B605CBF0B600220704798B2A8B9BF
:1053580010201B0C13F0FF0F04BF1B0A08301A079C
:1053680004BF1B0904309A0704BF9B080230DA0700
:1053780002D45B0806D001300B6070471046E9E79D
:10538800002070472020704710B50C460121FFF718
:1053980027FF01224461026110BD2DE9F74F144631
:1053A8000A69236989469A42BEBF0B46A1461C4634
:1053B800D9F81070D4F810A0D9F80830D9F804102A
:1053C80007EB0A069E42C8BF0131FFF709FF00F14B
:1053D80014052B46002205EB8608434516D304F135
:1053E800140209F1140102EB8A0301EB8707019308
:1053F800019C134694420CD8002E03DD58F8043D56
:10540800002B54D0066103B0BDE8F08F43F8042B9D
:10541800E3E7B3F800A00432BAF1000F20D0AE469B
:1054280089464FF0000C59F8044BBEF800B0A3B2FF
:105438000AFB03B34FEA144BDEF8004063444FEA1B
:10544800144C0AFB0BC404EB13449BB243EA044319
:105458004F454FEA144C4EF8043BE4D8CEF800C050
:1054680032F8029CB9F1000F1FD0AE468C464FF0BF
:10547800000A2B68BCF80040BEF802B09BB209FBDA
:1054880004B4A24443EA0A434EF8043B5CF8043BE4
:10549800BEF800401B0C09FB0343674503EB1A43A6
:1054A8004FEA134AE6D8CEF800300435A0E7013EAB
:1054B800A2E700002DE9F843154612F0030206465C
:1054C8000F4607D0214C013A002354F82220FFF759
:1054D800D2FE0746AD1035D0746A3CB91020FFF7EC
:1054E80045FC7062446084600460C460D6F824801F
:1054F800D8F808404CB940F271213046FFF744FF14
:1055080000230446C8F8080003604FF00008EB07C2
:105518000AD5394622463046FFF73FFF81463946CD
:105528003046FFF791FE4F466D100BD0206838B912
:10553800224621463046FFF730FF2060C0F8008041
:105548000446E4E73846BDE8F88300BF5860000821
:105558002DE9F0470C460746164623694FEA621ABA
:105568000AEB03094968A36809F10105AB4231DB7D
:105578003846FFF735FE00228046114600F1140335
:1055880052452ADB20692AEAEA7A04F1140116F066
:105598001F0203EB8A0301EB800E22D00020C2F128
:1055A800200C0E689640304343F8040B51F8040B66
:1055B8008E4520FA0CF0F4D8186008B109F10205FC
:1055C800013D3846C8F810502146FFF73DFE4046D9
:1055D800BDE8F08701315B00C8E743F822100132CB
:1055E800CEE7043B51F8042B8E4543F8042FF9D835
:1055F800E6E703690A6930B59B1A0CD192001430AA
:1056080014318418114454F8045D51F8042D95425E
:1056180003D005D30123184630BDA042F3D3FAE7DF
:105628004FF0FF33F7E72DE9F0470D4607461146DF
:1056380028461446FFF7DDFF061E08D131463846D6
:10564800FFF7CEFD012346610361BDE8F087A4BFE3
:1056580023462C4638466168A6BF1D46002601260B
:10566800FFF7BEFD4FF0000CC6602B69266904F1F8
:10567800140205F1140902EB860709EB830800F10F
:10568800140152F804AB59F8045B1FFA8AF3634417
:10569800ACB21B1B2C0CC4EB1A4404EB23449BB286
:1056A8004FEA244CC84543EA0444964641F8044B63
:1056B800E7D8BE4505D351F8043D8BB10661BDE876
:1056C800F0875EF8044BA2B26244131403EB144350
:1056D80092B242EA03424FEA234C41F8042BE8E72E
:1056E800013EE8E72DE9F3411C4601219046089E5A
:1056F800099DFFF775FDC4F31302C4F30A54074666
:1057080034BB0192B8F1000F27D002A840F8088DE9
:10571800FFF70BFE0099F0B1019AC0F1200302FADD
:1057280003F30B43C2407B610192019B002B14BF22
:1057380002210121BB613961C4B1A4F2334404449C
:105748003460C0F135002860384602B0BDE8F08109
:1057580042F48012D5E77961E7E701A8FFF7E5FD94
:105768000121019B39617B612030E5E7A0F23240DD
:1057780007EB810330601869FFF7B8FDC0EB4110F3
:10578800E1E7000038B50023054C054608462360CC
:10579800FDF7D0FB431C02D1236803B12B6038BD51
:1057A8001007002093682DE9F74F81460C461746ED
:1057B800002B60D04FF0000B5E46D2F800A056B325
:1057C800A3689E4244D3A28912F4906F3ED002236C
:1057D80025682169A5EB0108656905EB450595FB79
:1057E800F3F508F1010333449D4238BF1D465305C4
:1057F80046D529464846FFF7C1FA98B90C23C9F897
:105808000030A3894FF0FF3043F04003A381002309
:10581800BB607B6031E0DAF800B0DAF804600AF1C6
:10582800080ACCE7424621690190FFF7C1FCA2892A
:10583800019B22F4906242F08002A28123614344DA
:10584800236033466561A5EB0805A5609E4200D23A
:1058580033461A4659462068019300F071F9A26848
:10586800019BD21AA260226813442360BB689E1B66
:10587800BE60002ECFD10020786003B0BDE8F08F65
:105888002A46484600F076F903460028D6D1216911
:10589800484600F085F8B1E710B55143FFF76EFAB6
:1058A800044698B150F8042C22F00302043A242A42
:1058B8001BD8132A17D900211B2A0160416007D879
:1058C80000F1080300221A605A609A60204610BD51
:1058D800242A8160C16011BF00F11003016100F149
:1058E80018034161EEE70346ECE70021FDF7D2FB20
:1058F800ECE700002DE9F8438946254F0646FFF7F7
:1059080063FCBB68DFF894805D68A8F1110425F09A
:105918000305A4EB09042C44B4FBF8F4013C08FB90
:1059280004F4444505DA3046FFF754FC0020BDE88E
:10593800F88300213046FFF725FFBB682B449842C7
:10594800F1D161423046FFF71DFF013010D100212F
:105958003046FFF717FFBA68831A0F2BE3DD0D49AE
:1059680043F0010309685360401A0B490860DAE7FD
:10597800BB68094A2D1B45F001055D601368304678
:105988001C1B1460FFF726FC0120BDE8F88300BF4C
:1059980000010020080500209C060020800000006F
:1059A8002DE9F04104468846002900F0AB80FFF756
:1059B8000BFC58F8042C544D22F00100A8F1080300
:1059C8001F18A9687E688F4226F0030602F00102BC
:1059D8001BD130443AB958F8082C9B1A99681044DE
:1059E800DA68CA60916040F001025A60AB60474BC8
:1059F8001B68984204D3464B20461968FFF77AFF84
:105A08002046BDE8F041FFF7E5BB7E60002A39D1AA
:105A180058F8081C05F1080E5B1A08449968714586
:105A280032D0D3F80CE0C1F80CE0CEF80810B91960
:105A38004968C9070AD43044B9683ABB354EB142FF
:105A480024D101226B612B61D960996040F001017A
:105A580059601850002AD3D1B0F5007F1AD201221C
:105A6800C00881108A40696801300A436A6055F8A5
:105A7800301005EBC002083ADA60996045F830301A
:105A8800CB60BDE70022D2E70122D0E7FE68CE60F6
:105A9800B160DBE7420A042A13D882093832511C64
:105AA80055F8311005EBC2068E4224D10120921020
:105AB80000FA02F2686802436A60DE609960B360C7
:105AC800DEE7142A01D85B32E9E7542A02D8020B30
